S00C0000765049442E73726563C5
S11300004CC1000068C1000066C1000064C100006A
S113001062C1000060C100005EC100005CC100005C
S11300205AC1000058C1000056C1000054C100006C
S11300300C94F90E50C100004EC100004CC10000E8
S11300404AC1000048C1000046C1000044C100008C
S113005042C1000040C100003EC100003CC100009C
S11300603AC1000038C100005AC1000034C1000088
S113007032C1000030C100002EC100002CC10000BC
S11300802AC1000028C1000026C100005374616326
S11300906B206F766572666C6F77207461736B3A50
S11300A0005363686564756C65722073746172745F
S11300B06564202020005461736B73206372656152
S11300C0746564202020202020200051756575650A
S11300D073206372656174656420202020202000F1
S11300E04C4344206C696272617279202D204F6BFD
S11300F02020202000737461747573206F75742040
S11301006F662072616E6765200053686F772042C6
S1130110616C6C20506F736974696F6E20202D536D
S11301206C6F77506F736974696F6E3D2D302E312B
S113013032332D4C30303030303030202046543182
S11301403131313131313E4261636B202020202036
S113015020202020202020202000504944206973A2
S11301602072756E6E696E67202E2E2E20202D2033
S113017020205049442D496E7075743D2D302E3128
S113018032332D20205049442D4F75747075743DC1
S11301902D302E3132333E4261636B20616E642018
S11301A053746F70205049442000506172616D6532
S11301B07465722056616C756573204452203E202C
S11301C020446572697661746976653D2B302E3101
S11301D032333E2020205265666572656E63653D4C
S11301E02B302E3132333E4261636B20202020209D
S11301F020202020202020202000506172616D6585
S11302007465722056616C756573205049203E50A8
S1130210726F706F7274696F6E616C3D2B302E312A
S113022032333E20202020496E74656772616C3D34
S11302302B302E3132333E4E65787420202020201E
S11302402020202020202020200047726F7570304D
S113025035204558332032303230203E4368616EB9
S1130260676520506172616D657465722020203E5F
S113027053686F772042616C6C20506F73697469A6
S11302806F6E203E53746172742050494420436F52
S11302906E74726F6C200000000011241FBECFEF3B
S11302A0D0E1DEBFCDBF11E0A0E0B1E0E4E0F4E3D3
S11302B000E00BBF02C007900D92AE3FB107D9F723
S11302C02AE0AEEFB1E001C01D92A43BB207E1F712
S11302D031D00C94001A94CEEB010E94C80B8CE828
S11302E090E00E94FA0BCE010E94EB0BF89485B3C8
S11302F0807885BBFFCF109289001092880080918E
S1130300FE018F5F873018F48093FE0108951092E8
S1130310FE018091AB0A813009F4AF9A08951F92CF
S11303200F920FB60F921124AF980F900FBE0F903B
S11303301F901895EF92FF920F93CF9381B38F7014
S113034081BB82B3806F82BB1ABA8FEF8BBB84BB35
S113035083E08093640097E09093650010928B0093
S113036080938A0010928C00109289001092880069
S113037088EB9BE09093870080938600EDE7F0E0A4
S113038080818061808310BE8FE00E940B0C0E94EC
S1130390C80B80EE90E00E94FA0B61E08AE00E94B4
S11303A09E0F9093A00A80939F0AC1E0892B09F4C1
S11303B0C0E064E081E00E949E0F9093970A8093CE
S11303C0960A892B09F4C0E064E081E00E949E0F44
S11303D09093950A8093940A892B09F4C0E08BECDE
S11303E090E00E94FA0B0F2EF2E9EF2EFAE0FF2EB6
S11303F0F02D02E020E030E04DEC50E064EC71E0E0
S11304008FE591E10E943513813009F0C0E00F2E91
S1130410FCE8EF2EFAE0FF2EF02D01E020E030E0C2
S113042049E650E06BEC71E081EC92E00E943513F8
S1130430813009F0C0E00F2EFBE9EF2EFAE0FF2E29
S1130440F02D01E020E030E049E650E06FEC71E08F
S113045085E093E00E943513813009F0C0E00F2E4F
S1130460FDE9EF2EFAE0FF2EF02D01E020E030E070
S113047049EB50E066ED71E084E799E00E943513A2
S1130480813009F0C0E00F2EF8E9EF2EFAE0FF2EDC
S1130490F02D02E020E030E049E650E06AED71E042
S11304A08FEC92E10E943513813049F50F2EF9EA61
S11304B0EF2EFAE0FF2EF02D20E030E045EA50E088
S11304C060EE71E08AED9CE00E943513813069F49E
S11304D086EB90E00E94FA0BC13029F581EA90E0A6
S11304E00E94FA0B0E949E141EC086EB90E00E94AC
S11304F0FA0B19C086EB90E00E94FA0B14C00F2E81
S1130500F9EAEF2EFAE0FF2EF02D02E020E030E0D1
S113051045EA50E060EE71E08AED9CE00E943513FC
S1130520813019F7E7CF80E090E0CF910F91FF90F1
S1130530EF900895CF93DF93EC010E94BB142091B8
S1130540FF0130910002C9018C0F9D1F803D47E0DF
S1130550940758F42817390758F4E901CB5FDD4FA5
S1130560909300028093FF0105C0C0E0D0E002C078
S1130570C0E0D0E00E944615CE01DF91CF910895EE
S11305800895F12C08E81AE00F2EF7E8CF2EFAE0D0
S1130590DF2EF02D0F2EFFE29F2EF02D0F2EFEEFFB
S11305A0AF2EF02D0F2EFDE2BF2EF02D0F2EFBEF00
S11305B0EF2EF02D81E290E00E94CB150E94CB0B30
S11305C0C8E3DAE089910E94CE0BC017D107D1F7B6
S11305D06091330A80919A0A0E94B60BF3948F2D8E
S11305E08370813049F028F0823049F0833051F033
S11305F0E1CFF601A082DECFF6019082DBCFF601D7
S1130600B082D8CFF601E082D5CFCF93DF9300D06C
S113061000D01F92CDB7DEB70F2EF3E03F2EF02DA2
S11306200F2EF3E04F2EF02D0F2EF3E05F2EF02D62
S11306300F2EF3E07F2EF02D08E31AE068942224B5
S113064025F81B830A83142D83E090E00E94CB15C8
S1130650E3E6F0E02081F52DF170FC831D828C81AE
S11306609D81880F991F352D3D7F832B8E7F22FB23
S1130670552450F8582A29B340FAEE24E0F8F12C16
S1130680C701880F991F342D3D7F832B8E7F25FB57
S1130690442440F8482A29B330FACC24C0F8D12C99
S11306A0C601880F991F332D3D7F832B8E7F322EF9
S11306B0331C3324331C382A29B310FBAA24A0F892
S11306C0B12CC501880F991F912F9D7F892B8E7F97
S11306D024FB992790F9182F192B29B370FA882431
S11306E080F8912CC401880F991F972D9D7F892B29
S11306F08E7F26FB992790F9782E792A852D87708D
S113070041F4852D8460582E8EEDEA81FB81838B24
S11307101EC0852D90E08095909587709927892B30
S1130720B1F4E52DEB7F5E2EEA81FB81238AF1E0B3
S1130730F98380919F0A9091A00A009741F020E0EC
S113074040E050E0BE016F5F7F4F0E94F00F842DA8
S1130750877041F4842D8460482E80EEEA81FB8109
S1130760838B1EC0842D90E0809590958770992787
S1130770892BB1F4E42DEB7F4E2EEA81FB81238A91
S1130780F2E0F98380919F0A9091A00A009741F0CA
S113079020E040E050E0BE016F5F7F4F0E94F00F09
S11307A0832D877041F4832D8460382E81EEEA8195
S11307B0FB81838B1EC0832D90E08095909587707C
S11307C09927892BB1F4E32DEB7F3E2EEA81FB813F
S11307D0238AF3E0F98380919F0A9091A00A0097FD
S11307E041F020E040E050E0BE016F5F7F4F0E9487
S11307F0F00F812F877031F414608FEDEA81FB8153
S1130800838B1CC0812F90E08095909587709927E9
S1130810892BA1F41B7FEA81FB81238AF4E0F9830D
S113082080919F0A9091A00A009741F020E040E057
S113083050E0BE016F5F7F4F0E94F00F872D8770DD
S113084041F4872D8460782E8CE1EA81FB81838BCF
S1130850FBCE872D90E08095909587709927892B02
S113086009F0F2CEF72DFB7F7F2EEA81FB81238AEC
S1130870F5E0F98380919F0A9091A00A009709F40A
S1130880E3CE20E040E050E0BE016F5F7F4F0E9466
S1130890F00FDACE8F929F92AF92BF92CF92DF92F7
S11308A0EF92FF921F93CF93DF934B015C01690199
S11308B07A0120E030E0A9010E944619181634F0AC
S11308C0B7FAB094B7F8B0948DE201C08BE2C8E3F4
S11308D0DAE08AA3C501B4010E946818162F80E3E8
S11308E0810F8BA320E030E040E251E4C501B40164
S11308F00E944A194B015C01812F90E0BC01660FF4
S1130900771F880F991F880F991F880F991F680FE9
S1130910791F072E000C880B990B0E9496189B01D7
S1130920AC01C501B4010E9492174B015C010E9405
S11309306818162F80E3810F8DA320E030E040E299
S113094051E4C501B4010E944A194B015C01812F95
S113095090E0BC01660F771F880F991F880F991FBD
S1130960880F991F680F791F072E000C880B990BAD
S11309700E9496189B01AC01C501B4010E94921714
S11309804B015C010E946818162F80E3810F8EA32F
S113099020E030E040E251E4C501B4010E944A196C
S11309A04B015C01812F90E0BC01660F771F880F1B
S11309B0991F880F991F880F991F680F791F072E99
S11309C0000C880B990B0E9496189B01AC01C50181
S11309D0B4010E9492170E946818605D6FA320E022
S11309E030E0A901C701B6010E944619181634F077
S11309F0F7FAF094F7F8F0948DE201C08BE2C8E3C3
S1130A00DAE08EABC701B6010E946818162F80E3A6
S1130A10810F8FAB20E030E040E251E4C701B60122
S1130A200E944A196B017C01812F90E0BC01660F82
S1130A30771F880F991F880F991F880F991F680FB8
S1130A40791F072E000C880B990B0E9496189B01A6
S1130A50AC01C701B6010E9492176B017C010E9490
S1130A606818162F80E3810F89AF20E030E040E260
S1130A7051E4C701B6010E944A196B017C01812F20
S1130A8090E0BC01660F771F880F991F880F991F8C
S1130A90880F991F680F791F072E000C880B990B7C
S1130AA00E9496189B01AC01C701B6010E949217DF
S1130AB06B017C010E946818162F80E3810F8AAFB6
S1130AC020E030E040E251E4C701B6010E944A1937
S1130AD06B017C01812F90E0BC01660F771F880FAA
S1130AE0991F880F991F880F991F680F791F072E68
S1130AF0000C880B990B0E9496189B01AC01C7014E
S1130B00B6010E9492170E946818605D6BAFDF9176
S1130B10CF911F91FF90EF90DF90CF90BF90AF9057
S1130B209F908F9008954F925F926F927F928F92D1
S1130B309F92AF92BF92CF92DF92EF92FF920F9368
S1130B401F93CF93DF931F92CDB7DEB74B015C01A8
S1130B508EE080939A0A20E030E0A901C501B40137
S1130B600E94461918164CF0B7FAB094B7F8B0942E
S1130B700F2EFDE2EF2EF02D04C00F2EFBE2EF2E20
S1130B80F02DC501B4010E946818062F20E030E062
S1130B9040E251E4C501B4010E944A194B015C01D1
S1130BA0802F002E000C990BBC01660F771F880F55
S1130BB0991F880F991F880F991F680F791F072E97
S1130BC0000C880B990B0E9496189B01AC01C5017F
S1130BD0B4010E9492174B015C010E946818F62E22
S1130BE020E030E040E251E4C501B4010E944A191A
S1130BF04B015C018F2D0F2C000C990BBC01660F6F
S1130C00771F880F991F880F991F880F991F680FE6
S1130C10791F072E000C880B990B0E9496189B01D4
S1130C20AC01C501B4010E9492174B015C010E9402
S1130C306818162F20E030E040E251E4C501B40109
S1130C400E944A194B015C01212F012E000C330B29
S1130C50B901660F771F220F331F220F331F220F94
S1130C60331F620F731F072E000C880B990B0E9411
S1130C7096189B01AC01C501B4010E9492170E9411
S1130C806818962E0F2EF4E18F2EF02D0F2EFFE014
S1130C907F2EF02D0F2EF1E1CF2EF02D0F2EF2E14D
S1130CA0DF2EF02D0F2EFEE05F2EF02D0F2EF3E140
S1130CB06F2EF02D0F2EFAE0AF2EB12CF02D1CC1AB
S1130CC020E04FEF5FEFBE016F5F7F4F80919F0A7F
S1130CD09091A00A0E949D109981923009F4A8C0B5
S1130CE01CF49130C1F108C19330E1F0943009F063
S1130CF003C180919A0A8F3061F018F48E3031F07C
S1130D00FBC0813149F0823151F0F6C070929A0AE9
S1130D10F3C0C0929A0AF0C0D0929A0AEDC06092D1
S1130D209A0AEAC080919A0A813179F018F48F30D6
S1130D3079F0E2C0823131F0833109F0DDC0D09224
S1130D409A0ADAC0C0929A0AD7C070929A0AD4C09A
S1130D5050929A0AD1C080919A0A813199F128F46B
S1130D608E3049F08F30E1F0C7C08231E9F1833130
S1130D7009F44CC0C1C02BE2E21629F00F2EFBE2AD
S1130D80EF2EF02D04C00F2EFDE2EF2EF02DE0919A
S1130D90330A8E9EF0011124E85CF54FE686ACC060
S1130DA0802F000F990B0196B5010E94AD19082FF1
S1130DB0E091330A8E9EF0011124E85CF54F805DCA
S1130DC087879AC08F2DFF0C990B0196B5010E945D
S1130DD0AD19F82EE091330A8E9EF0011124E85CDF
S1130DE0F54F805D818B88C0812F110F990B01967F
S1130DF0B5010E94AD19182FE091330A8E9EF001BF
S1130E001124E85CF54F805D828B76C0892D990CA6
S1130E10990B0196B5010E94AD19982EE091330A01
S1130E208E9EF0011124E85CF54F805D838B64C0D5
S1130E3090919A0A913179F128F49E3049F09F30CB
S1130E40E1F05AC09231C9F1933109F444C054C05D
S1130E508BE2E81629F00F2EFBE2EF2EF02D04C0F2
S1130E600F2EFDE2EF2EF02DE091330A8E9EF0015D
S1130E701124E85CF54FE6863FC001500AF409E00E
S1130E80E091330A8E9EF0011124E85CF54F80E373
S1130E90800F878731C0FA94FF2024F40F2EF9E0E5
S1130EA0FF2EF02DE091330A8E9EF0011124E85CB0
S1130EB0F54F80E38F0D818B1FC011500AF419E0A8
S1130EC0E091330A8E9EF0011124E85CF54F80E333
S1130ED0810F828B11C09A94992024F40F2EF9E08B
S1130EE09F2EF02DE091330A8E9EF0011124E85CD0
S1130EF0F54F80E3890D838B9981953009F0E0CE1D
S1130F0010929A0A6F2DFF0C770B880B990B0E9495
S1130F1096182DEC3CEC4CEC5DE30E944A192B0135
S1130F203C01602F000F770B880B990B0E949618D9
S1130F309B01AC01C301B2010E9493172B013C0138
S1130F40612F110F770B880B990B0E9496182AE0DA
S1130F5037ED43E25CE30E944A199B01AC01C301F3
S1130F60B2010E9493172B013C01692D990C770B58
S1130F70880B990B0E9496182FE632E143E85AE356
S1130F800E944A199B01AC01C301B2010E9493174C
S1130F902DE2E21201C090580F90DF91CF911F9182
S1130FA00F91FF90EF90DF90CF90BF90AF909F9004
S1130FB08F907F906F905F904F9008958F929F9243
S1130FC0AF92BF92CF92DF92EF92FF920F931F9353
S1130FD0CF93DF93C0908E0AD0908F0AE090900A4E
S1130FE0F090910A20E030E0A901C701B6010E9407
S1130FF04619181654F4C092B00AD092B10AE0927D
S1131000B20AF092B30A8BE20DC0F7FAF094F7F843
S1131010F094C092B00AD092B10AE092B20AF0926F
S1131020B30A8DE2C8E3DAE08AA3C090B00AD09094
S1131030B10AE090B20AF090B30AC701B6010E9467
S11310406818162F80E3810F8BA320E030E040E284
S113105051E4C701B6010E944A196B017C01812F3A
S1131060110F990BBC01660F771F880F991F880F0A
S1131070991F880F991F680F791F072E000C880B82
S1131080990B0E9496189B01AC01C701B6010E94FE
S113109092176B017C010E946818162F80E3810F60
S11310A08DA320E030E040E251E4C701B6010E9484
S11310B04A196B017C01812F110F990BBC01660F3A
S11310C0771F880F991F880F991F880F991F680F22
S11310D0791F072E000C880B990B0E9496189B0110
S11310E0AC01C701B6010E9492176B017C010E94FA
S11310F06818162F80E3810F8EA320E030E040E2D1
S113110051E4C701B6010E944A196B017C01812F89
S1131110110F990BBC01660F771F880F991F880F59
S1131120991F880F991F680F791F072E000C880BD1
S1131130990B0E9496189B01AC01C701B6010E944D
S113114092176093B00A7093B10A8093B20A909395
S1131150B30A0E946818605D6FA380B399B3C82E68
S1131160C694C694C694C69420E1929FC0011124EB
S11311708C290091DA0910E0000F111F000F111FD4
S113118000501F4F0F2EF9E6EF2EFAE0FF2EF02D40
S1131190C0E0D0E0C82ED12C85B32C2F90E00C2ECB
S11311A002C0959587950A94E2F780FD02C080E31A
S11311B001C081E3F70182937F01C60102C09595C6
S11311C087952A95E2F780FD7FC06AC08091D9098E
S11311D08F5F8093D909A50194016091D50970911D
S11311E0D6098091D7099091D8090E9493176093EA
S11311F0D5097093D6098093D7099093D80921967D
S1131200045E1F4FC730D10539F615BA8DE491E05D
S11312100E94CB158091DA098F5F8093DA098730B9
S1131220A0F16091D9091616E4F4062E000C770B90
S1131230880B990B0E9496189B01AC016091D5090B
S11312407091D6098091D7099091D8090E94FB1713
S113125060938E0A70938F0A8093900A9093910AF8
S113126008C010928E0A10928F0A1092900A10925F
S1131270910A1092DA091092D9091092D5091092A4
S1131280D6091092D7091092D80981E090E0009015
S1131290DA0902C0880F991F0A94E2F785BB17C0C8
S11312A080E38387F80180809180A280B380C501A8
S11312B0B4019F772FE632E143E85AE30E944619CE
S11312C018160CF483CF87CF81E3838798CFDF91FF
S11312D0CF911F910F91FF90EF90DF90CF90BF902F
S11312E0AF909F908F900895CF93DF931F92CDB7C7
S11312F0DEB719828091920A9091930A0E94121487
S11313001092AB0A10929A0A81E08093330A1092E9
S1131310880A1092890A10928A0A10928B0A8DEC1C
S11313209CECACE4BEE38093A10A9093A20AA09340
S1131330A30AB093A40A1092AC0A1092AD0A1092B8
S1131340AE0A1092AF0A1092340A1092350A109223
S1131350360A1092370A10928E0A10928F0A10924F
S1131360900A1092910A1092A50A1092A60A10925D
S1131370A70A1092A80AF12C0F2EF5E68F2E912CB5
S1131380F02D6894BB24B1F806E81AE0E12C0F2E86
S1131390F3E0DF2EF02DCC24C3946894AA24A2F8A1
S11313A084E190E00E94CB15F40180818B25808339
S11313B0F2E0FF1609F4AEC0FF1538F0FF2071F01B
S11313C081E0F81609F442C052C1E3E0FE1609F4C4
S11313D005C1F4E0FF1609F438C149C1EAE4F2E0BA
S11313E0A8E3BAE084918D9331960A171B07D1F7CD
S11313F0F89485B3807885BB78948981823071F0C4
S11314008530A9F0813009F038C18091330A8230E7
S113141008F433C181508093330A2FC18091330A79
S1131420833008F02AC18F5F8093330A26C18091EC
S1131430330A823039F0833039F0813009F01DC12C
S1131440FC2C1BC1FA2C19C1FD2C17C1EAEFF1E0E9
S1131450A8E3BAE084918D933196A017B107D1F730
S11314602091AC0A3091AD0A4091AE0A5091AF0A76
S11314706091A10A7091A20A8091A30A9091A40A92
S113148009DA8981823071F08530A9F0813009F060
S1131490F4C08091330A823008F4EFC08150809305
S11314A0330AEBC08091330A833008F0E6C08F5FC3
S11314B08093330AE2C08091330A813091F46091C1
S11314C0A10A7091A20A8091A30A9091A40A2BDB2D
S11314D06093A10A7093A20A8093A30A9093A40A2A
S11314E0CCC0823091F46091AC0A7091AD0A8091C5
S11314F0AE0A9091AF0A17DB6093AC0A7093AD0A01
S11315008093AE0A9093AF0AB8C0833009F0B5C097
S1131510FB2CB3C0EAEAF1E0A8E3BAE084918D932E
S11315203196A017B107D1F72091880A3091890A22
S113153040918A0A50918B0A6091340A7091350A5D
S11315408091360A9091370AA5D98981823071F049
S11315508530A9F0813009F090C08091330A82303F
S113156008F48BC081508093330A87C08091330A7A
S1131570833008F082C08F5F8093330A7EC08091ED
S1131580330A813091F46091340A7091350A809164
S1131590360A9091370AC7DA6093340A7093350A91
S11315A08093360A9093370A68C0823091F4609130
S11315B0880A7091890A80918A0A90918B0AB3DA19
S11315C06093880A7093890A80938A0A90938B0A9D
S11315D054C0833009F051C0FE2C4FC0EAE5F1E05D
S11315E0A8E3BAE084918D9331960A171B07D1F7CB
S11315F02091A50A3091A60A4091A70A5091A80A01
S113160060918E0A70918F0A8091900A9091910A4C
S113161041D9D092330AC092AB0A8091920A909138
S1131620930A0E945F148981853039F58091920A6A
S11316309091930A0E941214F89485B3807885BB24
S11316407894E092AB0AFE2C18C0EAE0F1E0A8E33B
S1131650BAE084918D9331960A171B07D1F7AEDC5B
S1131660D092330A8981853041F4FE2C06C0F89467
S11316708FD085EF90E0BED0FFCF2E2D40E050E01C
S1131680BE016F5F7F4F80919F0A9091A00A55D54C
S1131690813009F485CEE98283CE1C9A00C01C985F
S11316A00895CF93C82F662311F01A9A01C01A988F
S11316B01B98BC9ABD9ABE9ABF9AC798C698C598FB
S11316C0C498CC230CF4C79AC6FDC69AC5FDC59A26
S11316D0C4FDC49AE2DFC798C698C598C498C3FDF0
S11316E0C79AC2FDC69AC1FDC59AC0FDC49AD5DF8A
S11316F0C49AC59AC69AC79ACF910895882311F0BF
S11317001A9A01C01A981B9ABC98BD98BE98BF98A3
S11317101C9A00C0B49B02C080E101C080E0B5996E
S11317208062B6998064B79980681C9800C01C9A3E
S113173000C0B4998160B5998260B6998460B79904
S113174088601C98089580E0D9DF8823E4F388E05A
S113175090E00197F1F780E0D1CF0895CF93C82F9F
S1131760F2DF60E08C2F9DDFCF910895611103C0FB
S11317708058F4CF0895613019F48056EFCF08955E
S1131780623019F48054EACF08958052E7CF089567
S113179081E0E4CF089582E0E1CF0895CF93C82F8C
S11317A0D2DFCA3099F4803248F090EE980F90322C
S11317B038F08054803230F080E005C080E203C00D
S11317C080E401C080E68058C9DF03C061E08C2F4B
S11317D068DFCF910895CF93DF93EC012196FC014C
S11317E08081882321F0DADF89918111FCCFDF9198
S11317F0CF910895CF93DF93EC012196FC0184915E
S1131800882331F0CBDFFE01849121968111FACF38
S1131810DF91CF9108951F93CF93DF93182F129ADE
S1131820139A149ABC9ABD9ABE9ABF9A80E09AEF12
S11318300197F1F7C59AC49A30DF80E09EE40197DE
S1131840F1F72BDFC0E0D1E0CE010197F1F725DFFE
S1131850CE010197F1F7C49820DF2197F1F784E2D4
S11318607DDF89E07BDF80E279DF88E077DF90DF6E
S113187086E074DF812F72DFDF91CF911F9108958D
S1131880FC010396928381832FEF3FEF34832383FC
S1131890968385839087878310820895FC0111863F
S11318A010860895CF93DF93FC01DB0121813281FF
S11318B0E9018A819B8113969C938E93129781816F
S11318C0928115969C938E9314978A819B81EC0147
S11318D07D836C83E9017B836A83728361831996B8
S11318E0FC93EE93189780818F5F8083DF91CF9173
S11318F00895CF93DF93EB01488159814F3F2FEF38
S1131900520731F4DC011796ED91FC91189717C03A
S1131910FC013396DC0115962D913C911697D90163
S11319202D913C914217530750F00280F381E02D32
S1131930A281B3812D913C9142175307B0F7A28144
S1131940B381BB83AA831596DC93CE931497FD834E
S1131950EC83D383C28399878887FC0120812F5F1E
S11319602083DF91CF910895FC01A281B38184810A
S1131970958115969C938E931497A481B581828149
S1131980938113969C938E931297A085B18511969B
S11319908D919C911297E817F90731F48481958110
S11319A012969C938E931197118610868C91815078
S11319B08C930895CF93DF93CDB7DEB760970FB6BE
S11319C0F894DEBF0FBECDBF19821A821B821C821F
S11319D0212C312C00E010E0412C512C320120E06C
S11319E04FEF5FEFBE016F5F7F4F8091960A90913A
S11319F0970AA3D38090A10A9090A20AA090A30A68
S1131A00B090A40A29813A814B815C816091880A53
S1131A107091890A80918A0A90918B0A0E94921788
S1131A206D877E878F87988BA50194016091340A16
S1131A307091350A8091360A9091370A0E94FB17FB
S1131A402AE037ED43EA5CE30E94FB1769877A8753
S1131A508B879C872091AC0A3091AD0A4091AE0AE5
S1131A605091AF0AC501B4010E94FB179B01AC0160
S1131A706AE077ED83EA9CE30E94FB179B01AC01CB
S1131A8060E070E080E89FE30E9492176B017C01A4
S1131A9029853A854B855C85CA01B9010E94931753
S1131AA0212F302F432D522D0E944A199B01AC0146
S1131AB0C701B6010E9493176B017C0120E030E05E
S1131AC040E85FE369857A858B859C850E9493173E
S1131AD02D853E854F8558890E944A199B01AC018A
S1131AE0C701B6010E9493176B017C0129853A85D1
S1131AF04B855C85612F702F832D922D0E944A198E
S1131B009B01AC01C701B6010E949317A501940182
S1131B100E944A199B01AC01C301B2010E949317B0
S1131B202B013C016D837E838F83988720E04FEFE8
S1131B305FEFBE016B5F7F4F8091940A9091950A8D
S1131B404FD21D850E853F84288849CF31E1FC01A1
S1131B503083319722E220833197A3E3A083319726
S1131B6060833197708331971082319760E8608386
S1131B7031971082319762E06083319763E060832C
S1131B80319764E06083319765E06083319766E064
S1131B906083319767E06083319768E060833197B1
S1131BA069E06083319760E16083319730833197D6
S1131BB032E13083319733E13083319734E130833C
S1131BC0319735E13083319736E13083319737E10E
S1131BD03083319738E13083319739E1308331975D
S1131BE030E23083319731E230833197208331976B
S1131BF023E220833197408331975083319726E243
S1131C002083319727E22083319728E2208331977C
S1131C1029E22083319720E32083319721E3208335
S1131C208697089582E08BBD8DEE8ABD8BE08EBDD4
S1131C3087B7806187BFA091310AB091320ACD91F4
S1131C40CDBFDD91DEBFFF91EF91DF91CF91BF91C9
S1131C50AF919F918F917F916F915F914F913F9140
S1131C602F911F910F91FF90EF90DF90CF90BF9035
S1131C70AF909F908F907F906F905F904F903F9028
S1131C802F901F900F900FBE0F90089581E008953C
S1131C900F920FB6F8940F921F9211242F923F9235
S1131CA04F925F926F927F928F929F92AF92BF9268
S1131CB0CF92DF92EF92FF920F931F932F933F9354
S1131CC04F935F936F937F938F939F93AF93BF9340
S1131CD0CF93DF93EF93FF93A091310AB091320A2F
S1131CE00DB60D920EB60D9296D7A091310AB09111
S1131CF0320ACD91CDBFDD91DEBFFF91EF91DF912F
S1131D00CF91BF91AF919F918F917F916F915F918F
S1131D104F913F912F911F910F91FF90EF90DF9082
S1131D20CF90BF90AF909F908F907F906F905F9077
S1131D304F903F902F901F900F900FBE0F900895DB
S1131D400F920FB6F8940F921F9211242F923F9284
S1131D504F925F926F927F928F929F92AF92BF92B7
S1131D60CF92DF92EF92FF920F931F932F933F93A3
S1131D704F935F936F937F938F939F93AF93BF938F
S1131D80CF93DF93EF93FF93A091310AB091320A7E
S1131D900DB60D920EB60D92F9D53DD7A091310A2C
S1131DA0B091320ACD91CDBFDD91DEBFFF91EF91AD
S1131DB0DF91CF91BF91AF919F918F917F916F915F
S1131DC05F914F913F912F911F910F91FF90EF9051
S1131DD0DF90CF90BF90AF909F908F907F906F9047
S1131DE05F904F903F902F901F900F900FBE0F90D9
S1131DF00895A6DF18950F931F93CF93DF93EC01FB
S1131E000FB6F8940F928E8D1816ACF4898981114F
S1131E1005C011C08989811104C00DC08E010F5EF7
S1131E201F4FC801E7D781110E948E178E8D8150F4
S1131E308E8F18167CF38FEF8E8F0F900FBE0FB618
S1131E40F8940F928D8D1816ACF48885811105C015
S1131E5011C08885811104C00DC08E01085F1F4F19
S1131E60C801C8D781110E948E178D8D81508D8F26
S1131E7018167CF38FEF8D8F0F900FBEDF91CF91EB
S1131E801F910F910895CF93DF93EC018C8D8823DC
S1131E90A9F1411117C0482F50E08C819D810E9407
S1131EA0E1192C8D8C819D81820F911D9D838C83E2
S1131EB02A813B818217930708F1888199819D8348
S1131EC08C831CC0482F50E08E819F810E94E119B1
S1131ED08C8D90E09195819591092E813F81280FF9
S1131EE0391F3F832E83488159812417350730F4E5
S1131EF02A813B81820F931F9F838E838A8D8F5FFC
S1131F008A8FDF91CF910895FC01808191810097A0
S1131F10A1F0448D50E026813781240F351F37838B
S1131F202683A281B3812A173B0710F09783868307
S1131F30CB01668177810C94E1190895CF92DF92E9
S1131F40EF92FF920F931F93CF93DF938823D1F1E6
S1131F50E62EF82E8FE190E00E949A02EC01892B84
S1131F60A1F1CE2CD12CFC9C8001FD9C100D1124E0
S1131F70C80101960E949A02998388830097E1F030
S1131F809C01200F311F3B832A831A8E9D838C83EF
S1131F900C191D09080F191F1F830E83FB8EEC8E6D
S1131FA08FEF8D8F8E8FCE0108966ADCCE0141961D
S1131FB067DC8C2F9D2F0BC0CE010E94C00280E0F5
S1131FC090E005C080E090E002C080E090E0DF9106
S1131FD0CF911F910F91FF90EF90DF90CF900895D4
S1131FE04F925F926F927F928F929F92AF92BF9225
S1131FF0CF92DF92EF92FF920F931F93CF93DF93D1
S113200000D000D01F92CDB7DEB78C016B015D8389
S11320104C83722E442443944C0188E0880E911C16
S1132020E12C662463945801E1E1AE0EB11C552401
S11320305A948C819D81892B09F43AC09CD40FB6A3
S1132040F8940F92F801858D8F3F09F4158EF801ED
S1132050868D8F3F09F4168E0F900FBEF1E04F125C
S113206003C0CE01019611D70FB6F8940F92F80170
S1132070928D0F900FBE838D981317C0BE016C5FB5
S11320807F4FCE0101960CD781110BC06C817D81ED
S1132090C40160D6C801AFDEF9D4811109C0F8DDEE
S11320A007C0C801A8DEF2D403C0C801A4DEEED480
S11320B00FB6F8940F92F801928D838D981778F4E7
S11320C0472DB601C801DFDEF8018189882349F074
S11320D0C50190D6813039F4DBDDF62C05C0FE2C29
S11320E003C0F62C01C0F62C0F900FBEF1100EC0E9
S11320F08C819D81892B51F0BE016C5F7F4FCE0195
S11321000196CED6452C882309F493CF8F2D0F90BA
S11321100F900F900F900F90DF91CF911F910F911F
S1132120FF90EF90DF90CF90BF90AF909F908F90F3
S11321307F906F905F904F9008954F925F926F924F
S11321407F928F929F92AF92BF92CF92DF92EF9243
S1132150FF920F931F93CF93DF9300D000D01F9271
S1132160CDB7DEB78C016B015D834C83622EEE2408
S1132170E3945C0181E1A80EB11C712C55245394A5
S11321804801E8E08E0E911C44244A948C819D8180
S1132190892B09F439C0EFD30FB6F8940F92F801E4
S11321A0858D8F3F09F4158EF801868D8F3F09F4D4
S11321B0168E0F900FBEF1E0EF1203C0CE01019610
S11321C064D60FB6F8940F92F801828D0F900FBE6B
S11321D0811117C0BE016C5F7F4FCE01019660D69E
S11321E081110BC06C817D81C501B4D5C80103DEAA
S11321F04DD4811109C04CDD07C0C801FCDD46D4B3
S113220003C0C801F8DD42D40FB6F8940F92F80168
S1132210828D882311F1E680F780B601C80174DE4F
S113222061100EC0F801828D8150828F80858823D1
S1132230B1F0C401DFD58130A1F42ADDF52C16C03C
S1132240F801F782E6828189882369F0C501D2D535
S1132250882359F01DDDF52C09C0F72C07C0F52C97
S113226005C0F52C03C0F52C01C0F52C0F900FBE52
S1132270F1100EC08C819D81892B51F0BE016C5FE1
S11322807F4FCE0101960CD6E42C882309F47ECF2F
S11322908F2D0F900F900F900F900F90DF91CF9193
S11322A01F910F91FF90EF90DF90CF90BF90AF9070
S11322B09F908F907F906F905F904F900895CF93F1
S11322C0DF93CDB7DEB7AC970FB6F894DEBF0FBE81
S11322D0CDBF19821A821B821C82F89485B3807840
S11322E0816085BB789419A61AA61BA61CA61DA2FC
S11322F01EA21FA218A619A21AA21BA21CA21D8EFE
S11323001E8E1F8E18A2198E1A8E1B8E1C8E1D8A6D
S11323101E8A1F8A188E198A1A8A1B8A1C8A1D868D
S11323201E861F86188A19861A861B861C861D829D
S11323301E821F821886A12CB12C912C612C712C29
S1132340812C81E090E027D480B399B3C82EC69441
S1132350C694C694C69420E1929FC00111248C298E
S1132360E82CF12C9701220F331F220F331FA901F0
S113237040505F4F7A0100E010E0C82ED12CC60116
S1132380002E02C0959587950A94E2F780FD1BC044
S1132390F7012080318042805380C201B1019F77D0
S11323A02FE632E143E05AE371D718160CF4739424
S11323B0A20191016A2D7B2D892D962DB4D5A62ECF
S11323C0B72E982E692E0F5F1F4FFCE1EF0EF11C04
S11323D007301105A1F6839426E0281508F0CFC034
S11323E07720A9F0672D70E080E090E09DD69B01F6
S11323F0AC016A2D7B2D892D962DFDD560938E0A17
S113240070938F0A8093900A9093910A0CC080E095
S113241090E0A0E0B0E080938E0A90938F0AA0939E
S1132420900AB093910AF0908E0A00918F0A10914D
S1132430900AE090910A2F2D302F412F5E2D6D814F
S11324407E818F8198856FD529853A854B855C85FA
S11324506AD52D853E854F85588965D529893A8960
S11324604B895C8960D52D893E894F89588D5BD510
S1132470298D3A8D4B8D5C8D56D52D8D3E8D4F8D8E
S113248058A151D529A13AA14BA15CA14CD52DA1AC
S11324903EA14FA158A547D529A53AA54BA55CA5B2
S11324A042D520E030E040E351E4A5D569837A8346
S11324B08B839C83E5E6F0E08081F1E08F27E5E6FD
S11324C0F0E0808320E04FEF5FEFBE016F5F7F4F4E
S11324D08091960A9091970A83DDFDA1F9A72EA118
S11324E02AA74FA14BA758A55CA789A18DA39AA1A0
S11324F09EA3EBA1EFA3FCA1F8A72D8D29A34E8DDC
S11325004AA35F8D5BA388A18CA3998D9D8FEA8DCF
S1132510EE8FFB8DFF8F2C8D28A34D89498F5E890B
S11325205A8F8F898B8F988D9C8FE989ED8BFA89CF
S1132530FE8B2B892F8B4C89488F5D85598B8E851B
S11325408A8B9F859B8BE889EC8BF985FD872A858F
S11325502E874B854F875C85588B8D8189879E811B
S11325609A87EF81EB87F885FC87FD820E831F83B2
S1132570E886A12CB12C912C612C712C812CF8941F
S113258025B381E090E0082C02C0880F991F0A94BB
S1132590E2F7922F9078892B85BB7894D2CECF9393
S11325A0DF9300D000D0CDB7DEB70F2EF6E8AF2E04
S11325B0B12CF02D04E611E020E04FEF5FEFBE01F7
S11325C06F5F7F4F8091940A9091950AB6DDC98020
S11325D0DA80EB80FC8020E030E040E85FE3C70174
S11325E0B60154D618164CF480E090E0A0E8BFE39E
S11325F089839A83AB83BC8311C020E030E040E838
S11326005FEBC701B601F3D4882344F480E090E083
S1132610A0E8BFEB89839A83AB83BC8389819A81C9
S1132620AB81BC818093A50A9093A60AA093A70AC4
S1132630B093A80AF5011183008320E030E04AEF4B
S113264052E469817A818B819C8124D63CD5C8016E
S1132650861B970BF50191838083AECFCDE0DAE042
S113266088818230E8F314DBFBCF6F927F928F92E4
S11326709F92AF92BF92CF92DF92EF92FF920F930D
S11326801F93CF93DF934C015B016A01390185E20B
S113269090E00E949A02EC01892B09F4B3C0C601B0
S11326A00E949A02988F8F8B009721F4CE010E948A
S11326B0C002A8C0A60165EA70E08CD64CE050E0E8
S11326C0B501CE0149968DD61CA2102F043008F016
S11326D013E01E8B5E0182E0A80EB11CC501DED89A
S11326E0CE010C96DBD8D987C88784E090E0811BA3
S11326F091099D878C87DB8BCA8BE1E0CE1AD108C8
S11327008F89988DA301B4018C0D9D1D1FDA9983C7
S113271088830FB6F8940F928091E4098F5F8093B9
S1132720E4098091E409813049F5D093320AC093D9
S1132730310A8DE09AE0A4D886E19AE0A1D88FE12D
S11327409AE09ED888E29AE09BD884E09AE098D8F0
S11327508BEF99E095D88EEE99E092D885EE99E0CA
S11327608FD884E09AE09093FA098093F9098BEF6B
S113277099E09093F8098093F7090FC08091DF09DD
S113278081110BC0E091310AF091320A8689081751
S113279020F0D093320AC093310A8E899091E109D6
S11327A0981710F48093E1099091E009981710F4B8
S11327B08093E00990E09C01220F331F220F331F06
S11327C0220F331F820F931FB501835F954F6AD881
S11327D00F900FBEE114F10419F0F701D183C08307
S11327E08091DF09882351F0E091310AF091320A97
S11327F08689801728F44CDA81E005C081E003C0A3
S113280081E001C08FEFDF91CF911F910F91FF9075
S1132810EF90DF90CF90BF90AF909F908F907F907C
S11328206F900895EF92FF920F931F93CF93DF93CE
S1132830EC010FB6F8940F928091310A9091320A0C
S11328408C179D0711F0209739F4C091310AD0916B
S1132850320AE12CF12C01C07E018E010E5F1F4F64
S1132860C80182D88C899D89892B19F0CE010C96D8
S11328707BD8B80185EE99E015D80F900FBEEF28EC
S113288009F406DADF91CF911F910F91FF90EF9039
S11328900895FC0122853385255E394061F4FC01ED
S11328A024893589F9E02E3E3F0739F081E0232B56
S11328B029F080E0089580E0089580E008950F9362
S11328C01F93CF93DF930097A1F12091310A3091A8
S11328D0320A8217930769F1EC010FB6F8940F924C
S11328E0D8DF813021F58E010E5F1F4FC8013CD81F
S11328F08E899091E009981710F48093E00990E094
S11329009C01220F331F220F331F220F331F820F0C
S1132910931FB801835F954F0E94520CE091310AD6
S1132920F091320A9E898689981708F0B1D90F90E0
S11329300FBEDF91CF911F910F910895EF92FF92F7
S11329400F93E12CF12C00E020E030E045E550E06D
S113295064EE71E08EE293E188DE813041F4F89414
S11329608093DF091092E3091092E2095BD90F9179
S1132970FF90EF9008950FB6F8940F928091DE09BE
S11329808F5F8093DE090F900FBE08950F931F93FE
S1132990CF93DF938091DE09811166C08091E209B3
S11329A09091E30901969093E3098093E209809161
S11329B0E2099091E309892B09F043C08091F90958
S11329C09091FA092091F7093091F8093093FA09A6
S11329D02093F9099093F8098093F7098091DB0912
S11329E08F5F8093DB092DC08091E2099091E30908
S11329F02A813B8182179307F0F18E010E5F1F4FEE
S1132A00C8010E94B40C8C899D89892B21F0CE01C8
S1132A100C960E94B40C8E899091E009981710F4DA
S1132A208093E00990E09C01220F331F220F331F93
S1132A30220F331F820F931FB801835F954F0E94AB
S1132A40520CE091F909F091FA098081882399F0F8
S1132A50E091F909F091FA090580F681E02DC6812B
S1132A60D781209709F607C08091DD098F5F809395
S1132A70DD090E947B018091DD09811102C00E9461
S1132A807B01DF91CF911F910F910895CF92DF9237
S1132A90EF92FF920F931F93CF93DF930FB6F894A7
S1132AA00F928091DE0981508093DE098091DE09C6
S1132AB0811163C08091E40981112BC061C0CE01F2
S1132AC00C960E94B40C8E010E5F1F4FC8010E9429
S1132AD0B40C8E899091E009981710F48093E00962
S1132AE090E09C01220F331F220F331F220F331F4C
S1132AF0820F931FB801835F954F0E94520CE0919F
S1132B00310AF091320A9E898689981758F0DC2C94
S1132B1009C0D12C0F2EFEEEEF2EF9E0FF2EF02D82
S1132B20CC24C394D7018C91882341F01596ED9160
S1132B30FC911697C681D781209709F68091DD090B
S1132B40882379F08091DD09882391F01FDF80913B
S1132B50DD0981508093DD098091DD098111F6CF73
S1132B6007C0B1E0DB1621F08091DC09813039F433
S1132B701092DC098DD881E003C080E001C080E0C0
S1132B800F900FBEDF91CF911F910F91FF90EF90A7
S1132B90DF90CF900895CF93DF93EC01892BB9F1A7
S1132BA0EADE8091E2099091E309C80FD91F809170
S1132BB0310A9091320A02960E94B40CE091310AD3
S1132BC0F091320AD383C2838091E2099091E309A0
S1132BD0C817D90768F46091310A7091320A80915C
S1132BE0F7099091F8096E5F7F4F0E94790C0CC031
S1132BF06091310A7091320A8091F9099091FA0931
S1132C006E5F7F4F0E94790C41DF811101C040D873
S1132C10DF91CF9108958091DE09882321F081E02E
S1132C208093DC090895A091310AB091320AE091B1
S1132C30310AF091320A2D913C918789908D821747
S1132C40930760F06091310A7091320A8091310AE1
S1132C509091320A675E7F4F0E946C01E091310AC5
S1132C60F091320A44E150E069EE71E08789908D79
S1132C709BD3892B61F06091310A7091320A809163
S1132C80310A9091320A675E7F4F0E946C018091F5
S1132C90E00990E0FC01EE0FFF1FEE0FFF1FEE0FA7
S1132CA0FF1F8E0F9F1FFC01E35FF54F8081811191
S1132CB017C08091E00981508093E0098091E00978
S1132CC090E0FC01EE0FFF1FEE0FFF1FEE0FFF1F42
S1132CD08E0F9F1FFC01E35FF54F8081882349F32A
S1132CE08091E00990E09C01220F331F220F331FD3
S1132CF0220F331F280F391FD901A35FB54F119637
S1132D00ED91FC9112970280F381E02D1296FC93D1
S1132D10EE931197205F354FE217F30729F42281D0
S1132D203381FD0132832183FC01EE0FFF1FEE0F7F
S1132D30FF1FEE0FFF1F8E0F9F1FFC01E35FF54F78
S1132D400180F281E02D868197819093320A8093ED
S1132D50310A0895CF93DF93EB016091310A7091AA
S1132D60320A645F7F4F0E94790C8091310A9091FE
S1132D70320A02960E94B40CCF3F8FEFD80759F461
S1132D806091310A7091320A6E5F7F4F85EE99E04F
S1132D900E94520C2CC06091E2097091E3096C0FFF
S1132DA07D1FE091310AF091320A7383628380912E
S1132DB0E2099091E3096817790768F46091310A90
S1132DC07091320A8091F7099091F8096E5F7F4FF4
S1132DD00E94790C0CC06091310A7091320A809182
S1132DE0F9099091FA096E5F7F4F0E94790CDF9187
S1132DF0CF9108950F931F93CF93DF93DC012C9110
S1132E00222339F01596ED91FC911697C681D7814E
S1132E1002C0C0E0D0E08E01045F1F4FC8010E94D1
S1132E20B40C8091DE0981111CC00A501109C8013B
S1132E300E94B40C8E899091E009981710F4809345
S1132E40E00990E09C01220F331F220F331F220F51
S1132E50331F820F931FB801835F954F0E94520C5A
S1132E6005C0B8018EEE99E00E94520CE091310A3F
S1132E70F091320A81E02E899689291708F480E0BE
S1132E80DF91CF911F910F9108952091DB09FC01EF
S1132E9020832091E2093091E3093283218308954C
S1132EA00FB6F8940F92DB012D913C912F3FBFEFA9
S1132EB03B0761F14091DB09FC015081541751F04B
S1132EC04091E2095091E3090180F281E02D4E170F
S1132ED05F07F0F44091E2095091E309DC01119697
S1132EE0ED91FC9112974E1B5F0B4217530790F420
S1132EF0DB014091E2095091E3094E1B5F0B241B57
S1132F00350B2D933C93C1DF80E005C080E003C006
S1132F1081E001C081E00F900FBE089581E08093AD
S1132F20DC0908955058BB27AA270ED075C166D175
S1132F3030F06BD120F031F49F3F11F41EF45BC1EB
S1132F400EF4E095E7FB51C1E92F77D180F3BA176E
S1132F50620773078407950718F071F49EF58FC113
S1132F600EF4E0950B2EBA2FA02D0B01B9019001A0
S1132F700C01CA01A0011124FF27591B99F0593FE4
S1132F8050F4503E68F11A16F040A22F232F342F2C
S1132F904427585FF3CF469537952795A795F0407A
S1132FA05395C9F77EF41F16BA0B620B730B840B8F
S1132FB0BAF09150A1F0FF0FBB1F661F771F881F47
S1132FC0C2F70EC0BA0F621F731F841F48F487959F
S1132FD077956795B795F7959E3F08F0B3CF93958E
S1132FE0880F08F09927EE0F979587950895D9D003
S1132FF008F481E008950CD00FC107D140F0FED051
S113300030F021F45F3F19F0F0C0511139C1F3C021
S113301014D198F39923C9F35523B1F3951B550B98
S1133020BB27AA2762177307840738F09F5F5F4F97
S1133030220F331F441FAA1FA9F333D00E2E3AF0D8
S1133040E0E830D091505040E695001CCAF729D0F2
S1133050FE2F27D0660F771F881FBB1F2617370741
S11330604807AB07B0E809F0BB0B802DBF01FF2771
S113307093585F4F2AF09E3F510568F0B6C000C1D7
S11330805F3FECF3983EDCF3869577956795B795AB
S1133090F7959F5FC9F7880F911D9695879597F9C6
S11330A00895E1E0660F771F881FBB1F621773073F
S11330B08407BA0720F0621B730B840BBA0BEE1F54
S11330C088F7E095089504D06894B111D9C00895A3
S11330D0BCD088F09F5790F0B92F9927B751A0F032
S11330E0D1F0660F771F881F991F1AF0BA95C9F798
S11330F012C0B13081F0C3D0B1E00895C0C0672FD1
S1133100782F8827B85F39F0B93FCCF38695779547
S11331106795B395D9F73EF4909580957095619530
S11331207F4F8F4F9F4F0895E89409C097FB3EF45B
S113313090958095709561957F4F8F4F9F4F992300
S1133140A9F0F92F96E9BB279395F695879577957E
S11331506795B795F111F8CFFAF4BB0F11F460FF3E
S11331601BC06F5F7F4F8F4F9F4F16C0882311F096
S113317096E911C0772321F09EE8872F762F05C0AA
S1133180662371F096E8862F70E060E02AF09A9545
S1133190660F771F881FDAF7880F9695879597F93A
S11331A00895990F0008550FAA0BE0E8FEEF1616D4
S11331B01706E807F907C0F012161306E407F50727
S11331C098F0621B730B840B950B39F40A2661F09B
S11331D0232B242B252B21F408950A2609F4A1403E
S11331E0A6958FEF811D811D089597F99F6780E84B
S11331F070E060E008959FEF80EC089500240A9445
S11332001616170618060906089500240A941216BD
S11332101306140605060895092E0394000C11F4F0
S1133220882352F0BB0F40F4BF2B11F460FF04C09D
S11332306F5F7F4F8F4F9F4F089557FD9058440FF6
S1133240551F59F05F3F71F04795880F97FB991F01
S113325061F09F3F79F087950895121613061406BE
S1133260551FF2CF4695F1DF08C01616170618064B
S1133270991FF1CF86957105610508940895E89426
S1133280BB2766277727CB0197F908958ADF08F4CF
S11332908FEF08950BD0C0CFB1DF28F0B6DF18F060
S11332A0952309F0A2CFA7CF1124EACFC6DFA0F35C
S11332B0959FD1F3950F50E0551F629FF001729FC7
S11332C0BB27F00DB11D639FAA27F00DB11DAA1FE6
S11332D0649F6627B00DA11D661F829F2227B00D33
S11332E0A11D621F739FB00DA11D621F839FA00DBE
S11332F0611D221F749F3327A00D611D231F849F0E
S1133300600D211D822F762F6A2F11249F57504064
S11333108AF0E1F088234AF0EE0FFF1FBB1F661FFF
S1133320771F881F91505040A9F79E3F510570F0B8
S11333305CCFA6CF5F3FECF3983EDCF386957795A0
S11333406795B795F795E7959F5FC1F7FE2B880FB3
S1133350911D9695879597F9089597FB072E16F476
S1133360009406D077FD08D00BD007FC05D03EF4BE
S1133370909581959F4F0895709561957F4F08951D
S1133380AA1BBB1B51E107C0AA1FBB1FA617B70787
S113339010F0A61BB70B881F991F5A95A9F78095A3
S11333A09095BC01CD010895FB01DC0104C08D9111
S11333B00190801921F441505040C8F7881B990BA3
S11333C00895FB01DC0102C001900D924150504070
S11333D0D8F70895DC0101C06D9341505040E0F7E7
S11333E00895FB01DC014150504048F001900D92DA
S11333F00020C9F701C01D9241505040E0F70895E4
S1073400F894FFCF6A
S11334040000803F6666663FCDCC4C3F0000000060
S113341400000000000000000000000000000000A4
S113342400000000000000003333333F9A99193F31
S11334340000003F000000009A99993ECDCC4C3E18
S11334440000000000000000000000000000000074
S1133454CDCCCC3E0000000000000000CDCCCC3D1F
S11334646F12833ACDCCCCBD0000008000000080F4
S1133474CDCCCCBE000000800000008000000080A1
S113348400000080CDCC4CBE9A9999BE0000008007
S1133494000000BF9A9919BF333333BF0000008082
S11334A40000008000000080000000800000008014
S11334B40000008000000080CDCC4CBF666666BF6F
S11334C4000080BF53656E736F72004C4344005414
S11334D4617374657200484D4900536572766F00D8
S11334E45049440049444C4500A5A5A5A5A5A5A556
S11134F4A5A5A5A5A5A5A5A5A5A5A5A5A50065
S9030000FC
