S00C0000765049442E73726563C5
S11300004CC1000068C1000066C1000064C100006A
S113001062C1000060C100005EC100005CC100005C
S11300205AC1000058C1000056C1000054C100006C
S11300300C94790D50C100004EC100004CC1000069
S11300404AC1000048C1000046C1000044C100008C
S113005042C1000040C100003EC100003CC100009C
S11300603AC1000038C100005AC1000034C1000088
S113007032C1000030C100002EC100002CC10000BC
S11300802AC1000028C1000026C100005374616326
S11300906B206F766572666C6F77207461736B3A50
S11300A0005363686564756C65722073746172745F
S11300B06564202020005461736B73206372656152
S11300C0746564202020202020200051756575650A
S11300D073206372656174656420202020202000F1
S11300E04C4344206C696272617279202D204F6BFD
S11300F02020202000737461747573206F75742040
S11301006F662072616E6765200053686F772042C6
S1130110616C6C20506F736974696F6E20202D536D
S11301206C6F77506F736974696F6E3D2D302E312B
S113013032332D4C30303030303030202046543182
S11301403131313131313E4261636B202020202036
S113015020202020202020202000504944206973A2
S11301602072756E6E696E67202E2E2E20202D2033
S113017020205049442D496E7075743D2D302E3128
S113018032332D20205049442D4F75747075743DC1
S11301902D302E3132333E4261636B20616E642018
S11301A053746F70205049442000506172616D6532
S11301B07465722056616C756573204452203E202C
S11301C020446572697661746976653D2B302E3101
S11301D032333E2020205265666572656E63653D4C
S11301E02B302E3132333E4261636B20202020209D
S11301F020202020202020202000506172616D6585
S11302007465722056616C756573205049203E50A8
S1130210726F706F7274696F6E616C3D2B302E312A
S113022032333E20202020496E74656772616C3D34
S11302302B302E3132333E4E65787420202020201E
S11302402020202020202020200047726F7570304D
S113025035204558332032303230203E4368616EB9
S1130260676520506172616D657465722020203E5F
S113027053686F772042616C6C20506F73697469A6
S11302806F6E203E53746172742050494420436F52
S11302906E74726F6C200000000011241FBECFEF3B
S11302A0D0E1DEBFCDBF11E0A0E0B1E0E2E9FFE2C2
S11302B000E00BBF02C007900D92AE3FB107D9F723
S11302C02AE0AEEFB1E001C01D92A43BB207E1F712
S11302D031D00C94C71794CEEB010E94930A8CE89A
S11302E090E00E94BE0ACE010E94B30AF89485B33E
S11302F0807885BBFFCF109289001092880080918E
S1130300FE018F5F873018F48093FE0108951092E8
S1130310FE018091AB0A813009F4AF9A08951F92CF
S11303200F920FB60F921124AF980F900FBE0F903B
S11303301F901895EF92FF920F93CF9381B38F7014
S113034081BB82B3806F82BB1ABA8FEF8BBB84BB35
S113035083E08093640097E09093650010928B0093
S113036080938A0010928C00109289001092880069
S113037088EB9BE0909387008093860080917D00BA
S1130380806180937D0010BE8FE00E94CC0A0E94A1
S1130390930A80EE90E00E94BE0A61E08AE00E9427
S11303A0100E9093A00A80939F0AC1E0892B09F450
S11303B0C0E064E081E00E94100E9093970A80935D
S11303C0960A892B09F4C0E064E081E00E94100ED3
S11303D09093950A8093940A892B09F4C0E08BECDE
S11303E090E00E94BE0A52E9E52E5AE0F52E02E0A2
S11303F020E030E04DEC50E064EC71E083EA9FE0F3
S11304000E946011813009F0C0E04CE8E42E4AE01B
S1130410F42E01E020E030E049E650E06BEC71E0BE
S113042089E992E00E946011813009F0C0E03BE963
S1130430E32E3AE0F32E01E020E030E049E650E01C
S11304406FEC71E08AEC92E00E946011813009F057
S1130450C0E02DE9E22E2AE0F22E01E020E030E0B7
S113046049EB50E066ED71E08AE698E00E94601185
S1130470813009F0C0E098E9E92E9AE0F92E02E013
S113048020E030E049E650E06AED71E083E091E17C
S11304900E946011813009F0C0E089EAE82E8AE008
S11304A0F82E02E020E030E045EA50E060EE71E032
S11304B080E99BE00E946011813009F0C0E086EB86
S11304C090E00E94BE0AC13031F481EA90E00E94BB
S11304D0BE0A0E94B61280E090E0CF910F91FF9087
S11304E0EF9008950F931F93CF93DF938C010E9495
S11304F0D612C091FF01D0910002CE01800F911F4E
S1130500803D27E0920750F4C817D90738F4CB5F31
S1130510DD4F909300028093FF0102C0C0E0D0E061
S11305200E945F13CE01DF91CF911F910F91089527
S11305300895C0E08DE2F82EDBEF9FE2E92E2EEF66
S1130540D22E81E290E00E94CF13EFD708E31AE0A5
S1130550F80181918F01EBD7FAE008381F07C1F742
S11305606091330A80919A0AD0D7CF5F8C2F837021
S1130570823051F0833059F0813019F0D092870ADB
S1130580E0CFE092870ADDCFF092870ADACFD093EA
S1130590870AD7CFCF93DF931F92CDB7DEB783E01F
S11305A0D82E93E0E92E23E0F22E03E013E030E2AC
S11305B0C32EBB24B3944EEDA42E52E0952E60EED0
S11305C0862E73E0772EE1EE6E2EF4E05F2EAFED13
S11305D04A2EB5E03B2E8CE1282E83E090E00E9469
S11305E0CF138091630010FB11F91E7F82FB8827D3
S11305F080F9182B89B300FB01F90E7F85FB88274E
S113060080F9082B89B39F2DF0FA91F99E7F881FFA
S11306108827881FF92EF82A89B39E2DE0FA91F9CC
S11306209E7F82958170E92EE82A89B39D2DD0FAA8
S113063091F99E7F86FB882780F9D92ED82A812FAD
S1130640877021F41460A0924B0A1AC0812F90E0A5
S11306508095909587709927892B91F41B7FC09280
S11306604B0AB98280919F0A9091A00A009741F0A9
S113067020E040E050E0BE016F5F7F4F0E94590EC2
S1130680802F877021F4046080924B0A1AC0802F57
S113069090E08095909587709927892B91F40B7F32
S11306A0C0924B0A998280919F0A9091A00A009768
S11306B041F020E040E050E0BE016F5F7F4F0E94B8
S11306C0590E8F2D877031F48F2D8460F82E60922F
S11306D04B0A1CC08F2D90E08095909587709927C8
S11306E0892BA1F48F2D8B7FF82EC0924B0A79822F
S11306F080919F0A9091A00A009741F020E040E089
S113070050E0BE016F5F7F4F0E94590E8E2D87709F
S113071031F48E2D8460E82E40924B0A1CC08E2D3D
S113072090E08095909587709927892BA1F48E2D60
S11307308B7FE82EC0924B0A598280919F0A909138
S1130740A00A009741F020E040E050E0BE016F5F56
S11307507F4F0E94590E8D2D877031F48D2D84604A
S1130760D82E20924B0A39CF8D2D90E0809590950C
S113077087709927892B09F030CF8D2D8B7FD82E48
S1130780C0924B0A398280919F0A9091A00A0097E7
S113079009F423CF20E040E050E0BE016F5F7F4FBB
S11307A00E94590E1ACF8F929F92AF92BF92CF920E
S11307B0DF92EF92FF92CF934B015C0169017A01C2
S11307C020E030E0A9010E940D17181634F0B7FAA2
S11307D0B094B7F8B0948DE201C08BE280935A0ACA
S11307E0C501B4010E942F16C62F80E38C0F80939D
S11307F05B0A20E030E040E251E4C501B4010E940C
S113080011174B015C018AE0C89FB0011124072E27
S1130810000C880B990B0E945D169B01AC01C5016D
S1130820B4010E9459154B015C010E942F16C62F7A
S113083080E38C0F80935D0A20E030E040E251E4D5
S1130840C501B4010E9411174B015C018AE0C89FE5
S1130850B0011124072E000C880B990B0E945D1621
S11308609B01AC01C501B4010E9459154B015C0107
S11308700E942F16C62F80E38C0F80935E0A20E01F
S113088030E040E251E4C501B4010E9411174B016C
S11308905C018AE0C89FB0011124072E000C880B6C
S11308A0990B0E945D169B01AC01C501B4010E9425
S11308B059150E942F16605D60935F0A20E030E0B6
S11308C0A901C701B6010E940D17181634F0F7FAF2
S11308D0F094F7F8F0948DE201C08BE280936E0AF5
S11308E0C701B6010E942F16C62F80E38C0F809398
S11308F06F0A20E030E040E251E4C701B6010E94F3
S113090011176B017C018AE0C89FB0011124072EE6
S1130910000C880B990B0E945D169B01AC01C7016A
S1130920B6010E9459156B017C010E942F16C62F37
S113093080E38C0F8093710A20E030E040E251E4C0
S1130940C701B6010E9411176B017C018AE0C89FA0
S1130950B0011124072E000C880B990B0E945D1620
S11309609B01AC01C701B6010E9459156B017C01C2
S11309700E942F16C62F80E38C0F8093720A20E00A
S113098030E040E251E4C701B6010E9411176B0147
S11309907C018AE0C89FB0011124072E000C880B4B
S11309A0990B0E945D169B01AC01C701B6010E9420
S11309B059150E942F16605D6093730ACF91FF90C2
S11309C0EF90DF90CF90BF90AF909F908F9008955D
S11309D06F927F928F929F92AF92BF92CF92DF924B
S11309E0EF92FF920F931F93CF93DF931F92CDB794
S11309F0DEB74B015C018EE080939A0A20E030E080
S1130A00A901C501B4010E940D1718163CF0B7FAEC
S1130A10B094B7F8B0940DE2E02E02C01BE2E12ED0
S1130A20C501B4010E942F16062F20E030E040E2F9
S1130A3051E4C501B4010E9411174B015C012AE085
S1130A400202B0011124072E000C880B990B0E949E
S1130A505D169B01AC01C501B4010E9459154B01FF
S1130A605C010E942F16D62E20E030E040E251E4D3
S1130A70C501B4010E9411174B015C018D2D9AE050
S1130A808902B0011124072E000C880B990B0E94D7
S1130A905D169B01AC01C501B4010E9459154B01BF
S1130AA05C010E942F16162F20E030E040E251E452
S1130AB0C501B4010E9411174B015C012AE0120226
S1130AC0B0011124072E000C880B990B0E945D16AF
S1130AD09B01AC01C501B4010E9459150E942F1657
S1130AE0F62E6FE0C62E71E1972EE2E18E2EFEE027
S1130AF07F2EA3E16A2EBAE0AB2EB12C898185301A
S1130B0009F40AC120E04FEF5FEFBE016F5F7F4F32
S1130B1080919F0A9091A00A0E94F60E89818230EA
S1130B2009F498C01CF4813059F1E8CF833089F07E
S1130B30843021F780919A0A8F30E1F018F48E30D6
S1130B40E1F0DCCF813199F08231C1F660929A0AEA
S1130B50D5CF80919A0A813181F028F48F3071F6D3
S1130B6070929A0ACBCF823129F0833139F6809280
S1130B709A0AC4CF90929A0AC1CFC0929A0ABECF61
S1130B8080919A0A813109F43FC0C0F48E3069F132
S1130B908F3009F0B3CF602F000F770BCB01019694
S1130BA0B5010E947417082FE091330A24E1E29FF3
S1130BB0F0011124E85CF54F805D7BC08231B9F10E
S1130BC0833109F09BCF8F2DFF0C990B0196B50152
S1130BD00E947417F82EE091330A94E1E99FF00122
S1130BE01124E85CF54F805D95C08BE2E81619F09E
S1130BF05BE2E52E02C04DE2E42EE091330A94E17B
S1130C00E99FF001112444C06D2DDD0C770BCB015D
S1130C100196B5010E947417D82EE091330A94E12D
S1130C20E99FF0011124E85CF54F805D53C0612F0A
S1130C30110F770BCB010196B5010E947417182F81
S1130C40E091330A24E1E29FF0011124E85CF54FBE
S1130C50805D4FC080919A0A813169F128F48E3009
S1130C6049F08F30C9F04ACF8231B1F1833109F4B0
S1130C7042C044CF2BE2E21619F03BE2E32E02C05D
S1130C802DE2E22EE091330A84E1E89FF001112481
S1130C90E85CF54FE68632CF015007FD09E0E091AC
S1130CA0330A94E1E99FF0011124E85CF54F80E3F5
S1130CB0800F878723CFDA94D7FE02C099E0D92E1C
S1130CC0E091330A24E1E29FF0011124E85CF54F3E
S1130CD080E38D0D818B12CF115017FD19E0E09147
S1130CE0330A84E1E89FF0011124E85CF54F80E3C6
S1130CF0810F828B03CFFA94F7FE02C089E0F82EAD
S1130D00E091330A94E1E99FF0011124E85CF54F86
S1130D1080E38F0D838BF2CE10929A0A6D2DDD0C39
S1130D20770B880B990B0E945D162DEC3CEC4CEC78
S1130D305DE30E9411174B015C01602F000F770BDC
S1130D40880B990B0E945D169B01AC01C501B4018F
S1130D500E945A154B015C01612F110F770B880B10
S1130D60990B0E945D162AE037ED43E25CE30E9492
S1130D7011179B01AC01C501B4010E945A154B0126
S1130D805C016F2DFF0C770B880B990B0E945D168D
S1130D902FE632E143E85AE30E9411179B01AC01AC
S1130DA0C501B4010E945A152DE2E21201C0905807
S1130DB00F90DF91CF911F910F91FF90EF90DF90F3
S1130DC0CF90BF90AF909F908F907F906F90089539
S1130DD04F925F926F927F92AF92BF92CF92DF92C7
S1130DE0EF92FF920F931F93CF93DF93C0908E0ADD
S1130DF0D0908F0AE090900AF090910A20E030E0C1
S1130E00A901C701B6010E940D17181654F4C09227
S1130E10B00AD092B10AE092B20AF092B30A8BE21D
S1130E200DC0F7FAF094F7F8F094C092B00AD0929B
S1130E30B10AE092B20AF092B30A8DE280935A0AA0
S1130E40C090B00AD090B10AE090B20AF090B30A10
S1130E50C701B6010E942F16C62F80E38C0F809322
S1130E605B0A20E030E040E251E4C701B6010E9491
S1130E7011176B017C012AE0C202B0011124072E74
S1130E80000C880B990B0E945D169B01AC01C701F5
S1130E90B6010E9459156B017C010E942F16C62FC2
S1130EA080E38C0F80935D0A20E030E040E251E45F
S1130EB0C701B6010E9411176B017C018AE0C802C8
S1130EC0B0011124072E000C880B990B0E945D16AB
S1130ED09B01AC01C701B6010E9459156B017C014D
S1130EE00E942F16C62F80E38C0F80935E0A20E0A9
S1130EF030E040E251E4C701B6010E9411176B01D2
S1130F007C019AE0C902B0011124072E000C880B61
S1130F10990B0E945D169B01AC01C701B6010E94AA
S1130F2059156093B00A7093B10A8093B20A9093F2
S1130F30B30A0E942F16605D60935F0A80B399B371
S1130F40C82FC295CF70E0E19E9FC00111248C2B65
S1130F50C090DA0999E6A92E9AE0B92EF4E0CF9E62
S1130F6060011124E12CF12C00E010E0C82FD0E046
S1130F7085B3202F90E0002E02C0959587950A94A2
S1130F80E2F780FD02C080E301C081E3F5018293B2
S1130F905F01CE0102C0959587952A95E2F79C01E1
S1130FA02170332780FD02C080E301C081E3F50195
S1130FB08387232B69F5F601EE0DFF1DE050FF4FEB
S1130FC04080518062807380C301B2019F772FE615
S1130FD032E143E85AE30E940D1718162CF480916D
S1130FE0D9098F5F8093D909A30192016091D50932
S1130FF07091D6098091D7099091D8090E945A1509
S11310006093D5097093D6098093D7099093D80932
S11310100F5F1F4FFCE1EF0EF11C0730110509F0C3
S1131020A7CF15BA8DE491E00E94CF138091DA091D
S11310308F5F8093DA098730A0F16091D909161681
S1131040E4F4062E000C770B880B990B0E945D16B6
S11310509B01AC016091D5097091D6098091D709A3
S11310609091D8090E94C21560938E0A70938F0ADA
S11310708093900A9093910A08C010928E0A10925D
S11310808F0A1092900A1092910A1092DA09109223
S1131090D9091092D5091092D6091092D709109245
S11310A0D80981E090E00090DA0902C0880F991F06
S11310B00A94E2F785BBDF91CF911F910F91FF90C6
S11310C0EF90DF90CF90BF90AF907F906F905F9044
S11310D04F900895CF93DF931F92CDB7DEB7198257
S11310E08091920A9091930A0E9433121092AB0A53
S11310F010929A0A81E08093330A1092880A10921F
S1131100890A10928A0A10928B0A8DEC9CECACE44A
S1131110BEE38093A10A9093A20AA093A30AB0937A
S1131120A40A1092AC0A1092AD0A1092AE0A109260
S1131130AF0A1092340A1092350A1092360A1092AD
S1131140370A10928E0A10928F0A1092900A109207
S1131150910A1092A50A1092A60A1092A70A109258
S1131160A80A10E082E0D82E96E8E92E9AE0F92E3B
S113117003E0CC24C39484E190E00E94CF138091D7
S113118065008D2580936500123009F4A6C050F4E3
S1131190112399F0113009F042C1EAEFF1E0A8E31C
S11311A0BAE03DC0133009F4F4C0143009F037C17B
S11311B0EAE0F1E0A8E3BAE024C1EAE4F2E0A8E35B
S11311C0BAE084918D933196EA16FB06D1F7F89430
S11311D085B3807885BB78948981823059F08530D5
S11311E079F0813009F021C18091330A823008F00E
S11311F09BC005C18091330A833008F000C13AC016
S11312008091330A823039F0833039F0813009F02B
S11312100CC111E00AC114E008C113E006C18491B5
S11312208D9331968AE0A638B807C9F72091AC0AA5
S11312303091AD0A4091AE0A5091AF0A6091A10A73
S11312407091A20A8091A30A9091A40AACDA8981D0
S1131250823059F0853091F0813009F0E6C08091F8
S1131260330A823008F060C0E0C08091330A8330D2
S113127008F0DBC08F5F8093330AD7C08091330AB4
S1131280813091F46091A10A7091A20A8091A30A1D
S11312909091A40A9DDB6093A10A7093A20A8093A3
S11312A0A30A9093A40AC1C0823091F46091AC0A5D
S11312B07091AD0A8091AE0A9091AF0A89DB609378
S11312C0AC0A7093AD0A8093AE0A9093AF0AADC096
S11312D0833009F0AAC012E0A8C0EAEAF1E0A8E36A
S11312E0BAE084918D933196EA16FB06D1F72091EA
S11312F0880A3091890A40918A0A50918B0A609138
S1131300340A7091350A8091360A9091370A4BDA83
S11313108981823059F0853071F0813009F085C0BF
S11313208091330A8230B8F28150A5CF8091330A7C
S1131330833088F69FCF8091330A813091F4609195
S1131340340A7091350A8091360A9091370A40DB4D
S11313506093340A7093350A8093360A9093370A5F
S113136064C0823091F46091880A7091890A8091F6
S11313708A0A90918B0A2CDB6093880A7093890AFD
S113138080938A0A90938B0A50C0833009F0A3CFCC
S113139036C0EAE5F1E0A8E3BAE084918D93319692
S11313A08AE0A638B807C9F72091A50A3091A60AA1
S11313B04091A70A5091A80A60918E0A70918F0AF1
S11313C08091900A9091910AEED90093330AC092C9
S11313D0AB0A8091920A9091930A0E947E128981AD
S11313E0853019F58091920A9091930A0E943312E4
S11313F0F89485B3807885BB78941092AB0A10E09A
S113140014C084918D9331968AE0A638B807C9F741
S1131410DFDC0093330A8981853039F4F0CFF89406
S113142082D085EF90E0AAD0FFCF20E040E050E0EA
S1131430BE016F5F7F4F80919F0A9091A00AD6D41E
S1131440813009F498CE198296CE1C9A00C01C985B
S11314500895CF93C82F662311F01A9A01C01A98E1
S11314601B98BC9ABD9ABE9ABF9AC798C698C5984D
S1131470C498C7FDC79AC6FDC69AC5FDC59AC4FDE2
S1131480C49AE3DFC798C698C598C498C3FDC79AA1
S1131490C2FDC69AC1FDC59AC0FDC49AD6DFC49ADE
S11314A0C59AC69AC79ACF9108951A981B9ABC9860
S11314B0BD98BE98BF981C9A00C0B49B02C080E13E
S11314C001C080E0B5998062B6998064B79980685C
S11314D01C9800C01C9A00C0B4998160B5998260C0
S11314E0B6998460B79988601C980895DEDF87FDFB
S11314F0FDCF88E090E00197F1F7D7CFCF93C82FC5
S1131500F5DF60E08C2FCF91A4CF611102C0805829
S113151009C0613011F4805605C0623011F4805462
S113152001C08052EBCF81E0E9CF82E0E7CFCF93D7
S1131530C82FDCDFCA3099F4803248F090EE980F5F
S1131540903238F08054803230F080E005C080E280
S113155003C080E401C080E68058CF91CFCF61E022
S11315608C2FCF9176CFCF93DF93EC018991882391
S113157011F0DDDFFBCFDF91CF910895CF93DF939F
S1131580FC018491EF012196882319F0D0DFFE013C
S1131590F8CFDF91CF9108951F93CF93DF93182F46
S11315A0129A139A149ABC9ABD9ABE9ABF9A80E072
S11315B09AEF0197F1F7C59AC49A47DF80E09EE459
S11315C00197F1F742DFC0E0D1E0CE010197F1F7D6
S11315D03CDFCE010197F1F7C49837DF2197F1F78B
S11315E084E28CDF89E08ADF80E288DF88E086DFBE
S11315F09ADF86E083DF812FDF91CF911F917ECF29
S1131600FC010396928381832FEF3FEF348323837E
S1131610968385839087878310820895FC011186C1
S113162010860895CF93DF93DC01FB0111962D9171
S11316303C911297E9018A819B819383828335834C
S113164024838A819B81EC017D836C83E9017B8304
S11316506A8312967C936E931197B187A0878C91BD
S11316608F5F8C93DF91CF910895CF93DF93AC017B
S1131670DB018D919C9111978F3F2FEF920721F4FD
S1131680EA01EF81F8850EC0FA0133962281338195
S1131690E901288139818217930720F00280F381C0
S11316A0E02DF4CF8281938113969C938E931297AD
S11316B0EC01BD83AC831596FC93EE931497B3832E
S11316C0A28319965C934E931897FA0180818F5FD9
S11316D08083DF91CF910895CF93DF93FC01A281A2
S11316E0B3818481958115969C938E931497C481BC
S11316F0D581BB83AA83A085B18511968D919C91D8
S11317001297E817F90721F41296DC93CE931197F8
S1131710118610868C9181508C93DF91CF9108951E
S1131720CF93DF93CDB7DEB728970FB6F894DEBF1B
S11317300FBECDBF1D821E821F82188619821A8297
S11317401B821C82712CC12CD12C612C812C912CDC
S1131750540120E04FEF5FEFBE016B5F7F4F80913C
S1131760960A9091970A42D32D813E814F815885E4
S11317706091880A7091890A80918A0A90918B0AF3
S11317800E9459157B018C019B01AC01C501B40178
S11317900E945A154B015C012AE037ED43EA5CE3F1
S11317A06091AC0A7091AD0A8091AE0A9091AF0A33
S11317B00E941117A50194010E9411171B012C010D
S11317C02091A10A3091A20A4091A30A5091A40A3F
S11317D0B701C8010E9411179B01AC01C201B101FC
S11317E00E945A151B012C01272D3C2D4D2D562DE1
S11317F0B701C8010E9459152091340A3091350A65
S11318004091360A5091370A0E9411172AE037EDA9
S113181043EA5CE30E94C2159B01AC01C201B10121
S11318200E945A1569837A838B839C8320E04FEF4F
S11318305FEFBE016F5F7F4F8091940A9091950A8C
S113184038D27E2CCF2CD02E612E83CF31E1FC01F7
S11318503083319722E220833197A3E3A083319729
S113186060833197708331971082319760E8608389
S113187031971082319762E06083319763E060832F
S1131880319764E06083319765E06083319766E067
S11318906083319767E06083319768E060833197B4
S11318A069E06083319760E16083319730833197D9
S11318B032E13083319733E13083319734E130833F
S11318C0319735E13083319736E13083319737E111
S11318D03083319738E13083319739E13083319760
S11318E030E23083319731E230833197208331976E
S11318F023E220833197408331975083319726E246
S11319002083319727E22083319728E2208331977F
S113191029E22083319720E32083319721E3208338
S11319208697089582E08BBD8DEE8ABD8BE08EBDD7
S113193087B7806187BFA091310AB091320ACD91F7
S1131940CDBFDD91DEBFFF91EF91DF91CF91BF91CC
S1131950AF919F918F917F916F915F914F913F9143
S11319602F911F910F91FF90EF90DF90CF90BF9038
S1131970AF909F908F907F906F905F904F903F902B
S11319802F901F900F900FBE0F90089581E008953F
S11319900F920FB6F8940F921F9211242F923F9238
S11319A04F925F926F927F928F929F92AF92BF926B
S11319B0CF92DF92EF92FF920F931F932F933F9357
S11319C04F935F936F937F938F939F93AF93BF9343
S11319D0CF93DF93EF93FF93A091310AB091320A32
S11319E00DB60D920EB60D9213D7A091310AB09197
S11319F0320ACD91CDBFDD91DEBFFF91EF91DF9132
S1131A00CF91BF91AF919F918F917F916F915F9192
S1131A104F913F912F911F910F91FF90EF90DF9085
S1131A20CF90BF90AF909F908F907F906F905F907A
S1131A304F903F902F901F900F900FBE0F900895DE
S1131A400F920FB6F8940F921F9211242F923F9287
S1131A504F925F926F927F928F929F92AF92BF92BA
S1131A60CF92DF92EF92FF920F931F932F933F93A6
S1131A704F935F936F937F938F939F93AF93BF9392
S1131A80CF93DF93EF93FF93A091310AB091320A81
S1131A900DB60D920EB60D9294D5BAD6A091310A18
S1131AA0B091320ACD91CDBFDD91DEBFFF91EF91B0
S1131AB0DF91CF91BF91AF919F918F917F916F9162
S1131AC05F914F913F912F911F910F91FF90EF9054
S1131AD0DF90CF90BF90AF909F908F907F906F904A
S1131AE05F904F903F902F901F900F900FBE0F90DC
S1131AF00895A6DF18950F931F93CF93DF93EC01FE
S1131B000FB6F8940F928C010F5E1F4F8E8D18162E
S1131B105CF48989882341F0C80144D78111C5D771
S1131B208E8D81508E8FF2CF8FEF8E8F0F900FBEE0
S1131B300FB6F8940F928E01085F1F4F8D8D181603
S1131B405CF48885882341F0C8012CD78111ADD776
S1131B508D8D81508D8FF2CF8FEF8D8F0F900FBEB3
S1131B60DF91CF911F910F910895CF93DF93EC01F3
S1131B70942F8C8D882399F1482F50E0911115C032
S1131B808C819D810E94A8172C8D8C819D81820F50
S1131B90911D9D838C832A813B8182179307F8F0E2
S1131BA0888199819D838C831AC08E819F810E9434
S1131BB0A8178C8D90E09195819591092E813F8194
S1131BC0280F391F3F832E834881598124173507F5
S1131BD030F42A813B81820F931F9F838E838A8DE9
S1131BE08F5F8A8FDF91CF910895FC01CB016081D3
S1131BF071816115710599F0448D50E0268137811A
S1131C00240F351F37832683A281B3812A173B070C
S1131C1010F077836683668177810C94A817089502
S1131C20CF92DF92EF92FF920F931F93CF93DF93A4
S1131C308823A1F1F62EE82E8FE190E00E94720233
S1131C40EC01892B59F1CF2CD12CEF9C800111246C
S1131C50C80101960E947202998388830097D9F083
S1131C609C01200F311F3B832A831A8E9D838C8312
S1131C700C191D09080F191F1F830E83EB8EFC8E90
S1131C808FEF8D8F8E8FCE010896BADCCE014196F0
S1131C90B7DCCE0105C0CE010E94980280E090E03E
S1131CA0DF91CF911F910F91FF90EF90DF90CF9034
S1131CB008958F929F92AF92BF92CF92DF92EF924C
S1131CC0FF920F931F93CF93DF9300D000D000D0E7
S1131CD0CDB7DEB78C016B015D834C83E22E81E0CE
S1131CE08E83580198E0A90EB11C4801E1E18E0EE3
S1131CF0911C8C819D81892B09F436C057D40FB671
S1131D00F8940F92F801858D8F3F09F4158EF80130
S1131D10868D8F3F09F4168E0F900FBEFE81F13031
S1131D2019F4CE01019681D60FB6F8940F92F801FA
S1131D30928D0F900FBE838D981313C0BE016C5FFC
S1131D407F4FCE0101967CD681110BC06C817D81C1
S1131D50C501DCD5C801CFDEB2D4811105C018DEBF
S1131D6003C0C801C8DEABD40FB6F8940F92F801D3
S1131D70928D838D981780F44E2DB601C801F5DE3F
S1131D80F8018189882329F0C4010CD6813009F433
S1131D90FFDDFF24F39401C0F12C0F900FBEF1106E
S1131DA00FC08C819D81892B69F0BE016C5F7F4FD0
S1131DB0CE01019645D6FFEFFE83811103C099CF72
S1131DC0FF24F3948F2D26960FB6F894DEBF0FBE32
S1131DD0CDBFDF91CF911F910F91FF90EF90DF90D6
S1131DE0CF90BF90AF909F908F9008957F928F92E5
S1131DF09F92AF92BF92CF92DF92EF92FF920F9396
S1131E001F93CF93DF9300D000D000D0CDB7DEB7BF
S1131E108C015B015D834C83722E81E08E836801AB
S1131E2091E1C90ED11C4801E8E08E0E911C8C8111
S1131E309D81892B09F435C0B9D30FB6F8940F925C
S1131E40F801858D8F3F09F4158EF801868D8F3F3B
S1131E5009F4168E0F900FBEFE81F13019F4CE01F5
S1131E600196E3D50FB6F8940F92F801828D0F9086
S1131E700FBE811113C0BE016C5F7F4FCE0101966E
S1131E80DFD581110BC06C817D81C6013FD5C801AE
S1131E9032DE15D4811105C07BDD03C0C8012BDE01
S1131EA00ED40FB6F8940F92F801828D882301F1B5
S1131EB0E680F780B501C80198DEF80171100EC004
S1131EC0828D8150828F8085882329F0C4016AD550
S1131ED0813009F45DDDFF24F3940BC0F782E682C0
S1131EE081898823C1F3C6015DD58823A1F3F2CF8C
S1131EF0F12C0F900FBEF1100FC08C819D81892BA6
S1131F0069F0BE016C5F7F4FCE01019699D5FFEF5A
S1131F10FE83811103C08BCFFF24F3948F2D26966B
S1131F200FB6F894DEBF0FBECDBFDF91CF911F91E6
S1131F300F91FF90EF90DF90CF90BF90AF909F9064
S1131F408F907F900895CF93DF93CDB7DEB7AE9790
S1131F500FB6F894DEBF0FBECDBF19821A821B8262
S1131F601C82F89485B38078816085BB78941BA625
S1131F701CA61DA61EA61BA21CA21DA21EA21F8E6D
S1131F8018A219A21AA21B8E1C8E1D8E1E8E1F8AC9
S1131F90188E198E1A8E1B8A1C8A1D8A1E8A1F8609
S1131FA0188A198A1A8A1B861C861D861E861F8219
S1131FB0188619861A861D821E82212C312C412CEA
S1131FC0512C320110E000E081E090E0E8D380B3CE
S1131FD099B3E82EE2948FE0E82220E1929FC001B9
S1131FE011248E2994E0099F40011124A12CB12CC5
S1131FF0C12CD12CE82EF12CC7010C2C02C09595D4
S113200087950A94E2F780FD21C0F401EA0DFB1DD7
S1132010E050FF4F80819181A281B3818FA398A763
S1132020A9A7BAA7BC01CD019F772FE632E143E00F
S11320305AE3F3D618160CF41F5F2FA138A549A54F
S11320405AA5C301B20136D52B013C019FEFC91A31
S1132050D90AACE1AA0EB11CB7E0CB16D10461F6E3
S11320600F5F073008F4C0C0112399F0612F70E0AE
S113207080E090E020D69B01AC01C301B20182D57F
S113208060938E0A70938F0A8093900A9093910ABA
S113209008C010928E0A10928F0A1092900A109221
S11320A0910AE0908E0AF0908F0A0091900A1091A4
S11320B0910A9701A8016D817E81C101FBD42F8112
S11320C0388549855A85F6D42B853C854D855E85B2
S11320D0F1D42F85388949895A89ECD42B893C89D4
S11320E04D895E89E7D42F89388D498D5A8DE2D484
S11320F02B8D3C8D4D8D5E8DDDD42F8D38A149A166
S11321005AA1D8D42BA13CA14DA15EA1D3D42BA517
S11321103CA54DA55EA5CED420E030E040E351E4DB
S113212031D569837A838B839C838091650021E018
S113213082278093650020E04FEF5FEFBE016F5F61
S11321407F4F8091960A9091970AB3DD8BA18BA75C
S11321509CA19CA7ADA1ADA7BEA1BEA72F8D2BA30B
S113216088A18CA399A19DA3AAA1AEA3BB8DBF8F67
S11321702C8D28A38D8D89A39E8D9AA3AF89AB8FB7
S1132180B88DBC8F298D2D8F8A8D8E8F9B899F8BC7
S1132190AC89A88FBD89B98F2E892A8F8F858B8BA7
S11321A098899C8BA989AD8BBA89BE8B2B852F8787
S11321B08C85888B9D85998BAE85AA8BBF81BB87C7
S11321C028852C8789858D879A859E87AD81AF83E5
S11321D0BE81B88729863A86ED82FE821801412C99
S11321E0512C320110E000E0F89425B381E090E036
S11321F0002E01C0880F0A94EAF7922F9078892B59
S113220085BB7894E1CECF93DF9300D000D0CDB7D7
S1132210DEB701E611E020E04FEF5FEFBE016F5F34
S11322207F4F8091940A9091950AE0DD20E030E0A0
S113223040E85FE369817A818B819C81EED5181631
S113224044F480E090E0A0E8BFE389839A83AB8301
S1132250BC8320E030E040E85FEB69817A818B81C8
S11322609C818CD487FF08C080E090E0A0E8BFEB9D
S113227089839A83AB83BC8369817A818B819C81B6
S11322806093A50A7093A60A8093A70A9093A80A5C
S1132290109387000093860020E030E04CEE52E477
S11322A0C0D5D8D4C801861B970B90938700809320
S11322B08600B1CF80910D0A8230E0F369DBFACF5A
S11322C06F927F928F929F92AF92BF92CF92DF9242
S11322D0EF92FF920F931F93CF93DF933C014B0137
S11322E06A01590185E290E00E947202EC01892B97
S11322F009F4A9C0C6010E947202988F8F8B0097BF
S113230021F4CE010E9498029EC0A60165EA70E005
S113231028D64CE050E0B401CE01499629D61CA23F
S1132320102F043008F013E01E8B4E0122E0820EC1
S1132330911CC40173D9CE010C9670D9D987C88772
S113234084E090E0811B91099D878C87DB8BCA8B8D
S113235081E0C81AD1088F89988DA501B3018C0D2D
S11323609D1D74DA998388830FB6F8940F92809137
S1132370E4098F5F8093E4098091E409813049F591
S1132380D093320AC093310A8DE09AE039D986E1BC
S11323909AE036D98FE19AE033D988E29AE030D9CD
S11323A084E09AE02DD98BEF99E02AD98EEE99E05A
S11323B027D985EE99E024D984E09AE09093FA092C
S11323C08093F9098BEF99E09093F8098093F709CA
S11323D00FC08091DF0981110BC0E091310AF091A7
S11323E0320A8689081720F0D093320AC093310A42
S11323F08E899091E109981710F48093E1099091E6
S1132400E009981710F48093E009E9E08E9FC00179
S11324101124B401835F954F05D90F900FBEE114C9
S1132420F10419F0F701D183C0838091DF09882377
S113243041F0E091310AF091320A8689801708F45C
S1132440A7DA81E001C08FEFDF91CF911F910F9147
S1132450FF90EF90DF90CF90BF90AF909F908F90C0
S11324607F906F900895EF92FF920F931F93CF93F5
S1132470DF93EC010FB6F8940F928091310A90919A
S1132480320A8C179D0711F0209739F40091310A14
S11324901091320AC0E0D0E001C08E01780182E0E0
S11324A0E80EF11CC70118D9F80184899589892B94
S11324B019F0C8010C9610D9B70185EE99E0B2D88D
S11324C00F900FBECD2B09F463DADF91CF911F91EA
S11324D00F91FF90EF900895FC0122853385255ECE
S11324E0394051F4FC0124893589F9E02E3E3F0737
S11324F019F081E0232B09F080E008950F931F93D6
S1132500CF93DF93009769F12091310A3091320A19
S11325108217930731F1EC010FB6F8940F92DCDFC8
S11325208130E9F48E010E5F1F4FC801D5D88E8922
S11325309091E009981710F48093E00929E0829FB4
S1132540C0011124B801835F954F6CD8E091310A22
S1132550F091320A9E898689981708F019DA0F904B
S11325600FBEDF91CF911F910F910895EF92FF92CB
S11325700F93E12CF12C00E020E030E045E550E041
S113258064EE71E08AE591E19BDE813059F4F894C0
S11325908093DF091092E3091092E2090F91FF90F2
S11325A0EF90C0C90F91FF90EF9008950FB6F89483
S11325B00F928091DE098F5F8093DE090F900FBE2A
S11325C00895FF920F931F93CF93DF938091DE09B9
S11325D081115DC08091E2099091E3090196909385
S11325E0E3098093E2098091E2099091E309892B40
S11325F0A9F48091F9099091FA092091F709309191
S1132600F8093093FA092093F9099093F809809313
S1132610F7098091DB098F5F8093DB0989E0F82E4D
S1132620E091F909F091FA0980818823B9F1E091E8
S1132630F909F091FA090580F681E02DC681D78168
S1132640209761F18091E2099091E3092A813B810D
S11326508217930718F18E010E5F1F4FC8013CD8F3
S11326608C899D89892B19F0CE010C9635D88E89D9
S11326709091E009981710F48093E009F89EC00146
S11326801124B801835F954F0E94120BC9CF80912A
S1132690DD098F5F8093DD090E947B018091DD0954
S11326A0811107C0DF91CF911F910F91FF900C947E
S11326B07B01DF91CF911F910F91FF900895EF92CD
S11326C0FF920F931F93CF93DF930FB6F8940F925B
S11326D08091DE0981508093DE098091DE09882390
S11326E011F080E053C08091E4098823D1F310E015
S11326F009E08091EE09811105C08091DD09811105
S11327002DC037C0E091F309F091F409C681D78157
S1132710209799F3CE010C960E946C0B7E0182E007
S1132720E80EF11CC7010E946C0B8E899091E009A0
S1132730981710F48093E009089FC0011124B70191
S1132740835F954F0E94120BE091310AF091320A97
S11327509E898689981768F211E0CBCF8091DD09B4
S1132760882349F02EDF8091DD0981508093DD09B3
S1132770F5CF113029F41092DC090AD981E006C0A2
S11327808091DC09813009F0ACCFF5CF0F900FBEFA
S1132790DF91CF911F910F91FF90EF900895CF9308
S11327A0DF93EC01892B11F4F3D82FC0FFDE809165
S11327B0E2099091E309C80FD91F8091310A9091E1
S11327C0320A02960E946C0BE091310AF091320AAF
S11327D0D383C2838091E2099091E3096091310A25
S11327E07091320AC817D90728F48091F70990919B
S11327F0F80904C08091F9099091FA096E5F7F4F3E
S11328000E94350B5CDF882379F2DF91CF91089524
S11328108091DE09882321F081E08093DC0908950A
S1132820A091310AB091320AE091310AF091320A52
S11328302D913C918789908D8217930760F0609168
S1132840310A7091320A8091310A9091320A675E9E
S11328507F4F0E946C01E091310AF091320A44E109
S113286050E069EE71E08789908D65D3892B61F022
S11328706091310A7091320A8091310A9091320A42
S1132880675E7F4F0E946C0199E0E091E0099E9F92
S1132890F0011124E35FF54F8081811106C080911E
S11328A0E00981508093E009F0CF8091E00990E045
S11328B049E0489F9001499F300D1124F901E35FDD
S11328C0F54FA181B28112960D90BC91A02DB283D7
S11328D0A183205F354FA217B30731F412962D91CF
S11328E03C9113973283218329E0289FF001299F8B
S11328F0F00D1124E35FF54F0180F281E02D868114
S113290097819093320A8093310A0895CF93DF938D
S1132910EB016091310A7091320A645F7F4F0E942B
S1132920350B8091310A9091320A02960E946C0B09
S1132930CF3F8FEFD80761F46091310A7091320A6A
S11329406E5F7F4F85EE99E0DF91CF910C94120B6F
S11329506091E2097091E3096C0F7D1FE091310AE7
S1132960F091320A738362838091E2099091E309C2
S11329706817790748F46091310A7091320A80919E
S1132980F7099091F80908C06091310A7091320AF0
S11329908091F9099091FA096E5F7F4FDF91CF9191
S11329A00C94350B0F931F93CF93DF93DC012C9181
S11329B0222339F01596ED91FC911697C681D781A3
S11329C002C0C0E0D0E08E01045F1F4FC8010E9426
S11329D06C0B8091DE09811114C00A501109C801E1
S11329E00E946C0B8E899091E009981710F48093E3
S11329F0E009B9E08B9FC0011124B801835F954FB2
S1132A0003C0B8018EEE99E00E94120BE091310AE6
S1132A10F091320A81E02E899689291708F480E022
S1132A20DF91CF911F910F9108952091DB09FC0153
S1132A3020832091E2093091E309328321830895B0
S1132A400FB6F8940F92DB012D913C912F3FBFEF0D
S1132A503B0729F14091DB09FC0150810180F2819F
S1132A60E02D541739F04091E2095091E3094E17D3
S1132A705F07B8F44091E2095091E3094E1B5F0BE4
S1132A804217530770F4DB014091E2095091E309C6
S1132A904E1B5F0B241B350B2D933C93C6DF80E04C
S1132AA001C081E00F900FBE089581E08093DC099E
S1132AB008955058BB27AA270ED075C166D130F0AF
S1132AC06BD120F031F49F3F11F41EF45BC10EF47E
S1132AD0E095E7FB51C1E92F77D180F3BA1762077C
S1132AE073078407950718F071F49EF58FC10EF4EF
S1132AF0E0950B2EBA2FA02D0B01B90190010C010A
S1132B00CA01A0011124FF27591B99F0593F50F421
S1132B10503E68F11A16F040A22F232F342F442779
S1132B20585FF3CF469537952795A795F040539571
S1132B30C9F77EF41F16BA0B620B730B840BBAF041
S1132B409150A1F0FF0FBB1F661F771F881FC2F7AC
S1132B500EC0BA0F621F731F841F48F487957795C0
S1132B606795B795F7959E3F08F0B3CF9395880F77
S1132B7008F09927EE0F979587950895D9D008F412
S1132B8081E008950CD00FC107D140F0FED030F0A1
S1132B9021F45F3F19F0F0C0511139C1F3C014D1D1
S1132BA098F39923C9F35523B1F3951B550BBB2710
S1132BB0AA2762177307840738F09F5F5F4F220FBD
S1132BC0331F441FAA1FA9F333D00E2E3AF0E0E8B6
S1132BD030D091505040E695001CCAF729D0FE2F02
S1132BE027D0660F771F881FBB1F26173707480794
S1132BF0AB07B0E809F0BB0B802DBF01FF2793584A
S1132C005F4F2AF09E3F510568F0B6C000C15F3F98
S1132C10ECF3983EDCF3869577956795B795F79531
S1132C209F5FC9F7880F911D9695879597F9089529
S1132C30E1E0660F771F881FBB1F621773078407C5
S1132C40BA0720F0621B730B840BBA0BEE1F88F7D4
S1132C50E095089504D06894B111D9C00895BCD00A
S1132C6088F09F5790F0B92F9927B751A0F0D1F071
S1132C70660F771F881F991F1AF0BA95C9F712C0FB
S1132C80B13081F0C3D0B1E00895C0C0672F782F70
S1132C908827B85F39F0B93FCCF386957795679567
S1132CA0B395D9F73EF490958095709561957F4FD3
S1132CB08F4F9F4F0895E89409C097FB3EF4909579
S1132CC08095709561957F4F8F4F9F4F9923A9F001
S1132CD0F92F96E9BB279395F69587957795679590
S1132CE0B795F111F8CFFAF4BB0F11F460FF1BC0D4
S1132CF06F5F7F4F8F4F9F4F16C0882311F096E967
S1132D0011C0772321F09EE8872F762F05C0662314
S1132D1071F096E8862F70E060E02AF09A95660FCD
S1132D20771F881FDAF7880F9695879597F9089586
S1132D30990F0008550FAA0BE0E8FEEF16161706C8
S1132D40E807F907C0F012161306E407F50798F030
S1132D50621B730B840B950B39F40A2661F0232B49
S1132D60242B252B21F408950A2609F4A140A695C5
S1132D708FEF811D811D089597F99F6780E870E0AA
S1132D8060E008959FEF80EC089500240A941616DD
S1132D90170618060906089500240A941216130645
S1132DA0140605060895092E0394000C11F48823D3
S1132DB052F0BB0F40F4BF2B11F460FF04C06F5FEF
S1132DC07F4F8F4F9F4F089557FD9058440F551FC5
S1132DD059F05F3F71F04795880F97FB991F61F099
S1132DE09F3F79F087950895121613061406551F10
S1132DF0F2CF4695F1DF08C0161617061806991F7C
S1132E00F1CF86957105610508940895E894BB2770
S1132E1066277727CB0197F908958ADF08F48FEFA7
S1132E2008950BD0C0CFB1DF28F0B6DF18F095239A
S1132E3009F0A2CFA7CF1124EACFC6DFA0F3959F54
S1132E40D1F3950F50E0551F629FF001729FBB278D
S1132E50F00DB11D639FAA27F00DB11DAA1F649F39
S1132E606627B00DA11D661F829F2227B00DA11DEC
S1132E70621F739FB00DA11D621F839FA00D611D72
S1132E80221F749F3327A00D611D231F849F600D93
S1132E90211D822F762F6A2F11249F5750408AF0CC
S1132EA0E1F088234AF0EE0FFF1FBB1F661F771F58
S1132EB0881F91505040A9F79E3F510570F05CCF98
S1132EC0A6CF5F3FECF3983EDCF386957795679544
S1132ED0B795F795E7959F5FC1F7FE2B880F911D76
S1132EE09695879597F9089597FB072E16F4009405
S1132EF006D077FD08D00BD007FC05D03EF49095A2
S1132F0081959F4F0895709561957F4F0895AA1BF1
S1132F10BB1B51E107C0AA1FBB1FA617B70710F0C0
S1132F20A61BB70B881F991F5A95A9F780959095F2
S1132F30BC01CD010895FB01DC0104C08D91019019
S1132F40801921F441505040C8F7881B990B08950B
S1132F50FB01DC0102C001900D9241505040D8F7B2
S1132F600895DC0101C06D9341505040E0F708958D
S1132F70FB01DC014150504048F001900D920020CB
S1132F80C9F701C01D9241505040E0F70895F894EC
S1052F90FFCF6D
S1132F920000803F6666663FCDCC4C3F00000000D7
S1132FA2000000000000000000000000000000001B
S1132FB200000000000000003333333F9A99193FA8
S1132FC20000003F000000009A99993ECDCC4C3E8F
S1132FD200000000000000000000000000000000EB
S1132FE2CDCCCC3E0000000000000000CDCCCC3D96
S1132FF26F12833ACDCCCCBD00000080000000806B
S1133002CDCCCCBE00000080000000800000008017
S113301200000080CDCC4CBE9A9999BE000000807D
S1133022000000BF9A9919BF333333BF00000080F8
S1133032000000800000008000000080000000808A
S11330420000008000000080CDCC4CBF666666BFE5
S1133052000080BF53656E736F72004C434400548A
S1133062617374657200484D4900536572766F004E
S11330725049440049444C4500A5A5A5A5A5A5A5CC
S1113082A5A5A5A5A5A5A5A5A5A5A5A5A500DB
S9030000FC
